{
  "contractName": "BirthCertificate",
  "abi": [
    {
      "constant": true,
      "inputs": [],
      "name": "certificateCount",
      "outputs": [
        {
          "name": "",
          "type": "uint256"
        }
      ],
      "payable": false,
      "stateMutability": "view",
      "type": "function"
    },
    {
      "constant": true,
      "inputs": [
        {
          "name": "",
          "type": "uint256"
        }
      ],
      "name": "certificates",
      "outputs": [
        {
          "name": "id",
          "type": "uint256"
        },
        {
          "name": "name",
          "type": "string"
        }
      ],
      "payable": false,
      "stateMutability": "view",
      "type": "function"
    },
    {
      "inputs": [],
      "payable": false,
      "stateMutability": "nonpayable",
      "type": "constructor"
    },
    {
      "constant": false,
      "inputs": [
        {
          "name": "_candidateId",
          "type": "uint256"
        }
      ],
      "name": "vote",
      "outputs": [],
      "payable": false,
      "stateMutability": "nonpayable",
      "type": "function"
    }
  ],
  "bytecode": "0x608060405234801561001057600080fd5b506100556040518060400160405280600b81526020017f43616e646964617465203100000000000000000000000000000000000000000081525061009e60201b60201c565b6100996040518060400160405280600b81526020017f43616e646964617465203200000000000000000000000000000000000000000081525061009e60201b60201c565b6101ad565b60016000815480929190600101919050555060405180604001604052806001548152602001828152506000806001548152602001908152602001600020600082015181600001556020820151816001019080519060200190610101929190610108565b5090505050565b828054600181600116156101000203166002900490600052602060002090601f016020900481019282601f1061014957805160ff1916838001178555610177565b82800160010185558215610177579182015b8281111561017657825182559160200191906001019061015b565b5b5090506101849190610188565b5090565b6101aa91905b808211156101a657600081600090555060010161018e565b5090565b90565b610231806101bc6000396000f3fe608060405234801561001057600080fd5b50600436106100415760003560e01c80630121b93f1461004657806352d7b89c14610074578063663b3e2214610092575b600080fd5b6100726004803603602081101561005c57600080fd5b8101908080359060200190929190505050610140565b005b61007c610143565b6040518082815260200191505060405180910390f35b6100be600480360360208110156100a857600080fd5b8101908080359060200190929190505050610149565b6040518083815260200180602001828103825283818151815260200191508051906020019080838360005b838110156101045780820151818401526020810190506100e9565b50505050905090810190601f1680156101315780820380516001836020036101000a031916815260200191505b50935050505060405180910390f35b50565b60015481565b6000602052806000526040600020600091509050806000015490806001018054600181600116156101000203166002900480601f0160208091040260200160405190810160405280929190818152602001828054600181600116156101000203166002900480156101fb5780601f106101d0576101008083540402835291602001916101fb565b820191906000526020600020905b8154815290600101906020018083116101de57829003601f168201915b505050505090508256fea165627a7a7230582025730f8dfdea055d4435073a372119227f6d80a58d7a0a48421c221386a604f00029",
  "source": "pragma solidity 0.5.8;\n\ncontract BirthCertificate {\n    // Model a Certificate\n    struct Certificate {\n        uint id;\n        string name;\n    }\n    \n    // Read/write Candidates\n    mapping(uint => Certificate) public certificates;\n    // Store Candidates Count\n    uint public certificateCount;\n\n    constructor() public {\n        addCandidate(\"Candidate 1\");\n        addCandidate(\"Candidate 2\");\n    }\n    \n    function addCandidate (string memory _name) private {\n        certificateCount ++;\n        certificates[certificateCount] = Certificate(certificateCount, _name);\n    }\n\n    function vote (uint _candidateId) public {\n        // require that they haven't voted before\n        // require(!voters[msg.sender]);\n\n        // // require a valid candidate\n        // require(_candidateId > 0 && _candidateId <= certificateCount);\n\n        // // record that voter has voted\n        // voters[msg.sender] = true;\n\n        // // update candidate vote Count\n        // candidates[_candidateId].voteCount ++;\n    }\n}",
  "sourcePath": "/Users/douglasmandarino/Documents/PUC/Blockchain/Notary/contracts/BirthCertificate.sol",
  "compiler": {
    "name": "solc",
    "version": "0.5.8+commit.23d335f2.Emscripten.clang"
  },
  "schemaVersion": "3.0.16",
  "updatedAt": "2019-10-18T04:00:57.779Z",
  "devdoc": {
    "methods": {}
  },
  "userdoc": {
    "methods": {}
  }
}