{
  "contractName": "Notary",
  "abi": [
    {
      "constant": true,
      "inputs": [],
      "name": "birthCertificateCount",
      "outputs": [
        {
          "name": "",
          "type": "uint256"
        }
      ],
      "payable": false,
      "stateMutability": "view",
      "type": "function"
    },
    {
      "constant": true,
      "inputs": [
        {
          "name": "",
          "type": "uint256"
        }
      ],
      "name": "birthCertificates",
      "outputs": [
        {
          "name": "registration",
          "type": "uint256"
        },
        {
          "name": "name",
          "type": "string"
        },
        {
          "name": "city",
          "type": "string"
        },
        {
          "name": "gender",
          "type": "string"
        },
        {
          "name": "father",
          "type": "string"
        },
        {
          "name": "mother",
          "type": "string"
        },
        {
          "name": "paternalGrandfather",
          "type": "string"
        },
        {
          "name": "paternalGrandmother",
          "type": "string"
        },
        {
          "name": "maternalGrandfather",
          "type": "string"
        },
        {
          "name": "maternalGrandmother",
          "type": "string"
        },
        {
          "name": "witness",
          "type": "string"
        }
      ],
      "payable": false,
      "stateMutability": "view",
      "type": "function"
    },
    {
      "inputs": [],
      "payable": false,
      "stateMutability": "nonpayable",
      "type": "constructor"
    },
    {
      "constant": false,
      "inputs": [
        {
          "name": "_registration",
          "type": "uint256"
        },
        {
          "name": "_name",
          "type": "string"
        },
        {
          "name": "_city",
          "type": "string"
        },
        {
          "name": "_gender",
          "type": "string"
        },
        {
          "name": "_father",
          "type": "string"
        },
        {
          "name": "_mother",
          "type": "string"
        },
        {
          "name": "_paternalGrandfather",
          "type": "string"
        },
        {
          "name": "_paternalGrandmother",
          "type": "string"
        },
        {
          "name": "_maternalGrandfather",
          "type": "string"
        },
        {
          "name": "_maternalGrandmother",
          "type": "string"
        },
        {
          "name": "_witness",
          "type": "string"
        }
      ],
      "name": "createBirthCertificate",
      "outputs": [],
      "payable": false,
      "stateMutability": "nonpayable",
      "type": "function"
    }
  ],
  "bytecode": "0x608060405234801561001057600080fd5b50611878806100206000396000f3fe608060405234801561001057600080fd5b50600436106100415760003560e01c80631c3fe77614610046578063b6a9aa7114610062578063e13b346214610080575b600080fd5b610060600480360361005b9190810190610e54565b6100ba565b005b61006a610299565b604051610077919061163e565b60405180910390f35b61009a60048036036100959190810190610e2b565b61029f565b6040516100b19b9a99989796959493929190611659565b60405180910390f35b6001600081548092919060010191905055506100d4610cc3565b8b8160000181815250508a8160200181905250898160400181905250888160600181905250878160800181905250868160a00181905250858160c00181905250848160e00181905250838161010001819052508281610120018190525081816101400181905250610144816108e9565b80600080600154815260200190815260200160002060008201518160000155602082015181600101908051906020019061017f929190610d1d565b50604082015181600201908051906020019061019c929190610d1d565b5060608201518160030190805190602001906101b9929190610d1d565b5060808201518160040190805190602001906101d6929190610d1d565b5060a08201518160050190805190602001906101f3929190610d1d565b5060c0820151816006019080519060200190610210929190610d1d565b5060e082015181600701908051906020019061022d929190610d1d565b5061010082015181600801908051906020019061024b929190610d1d565b50610120820151816009019080519060200190610269929190610d1d565b5061014082015181600a019080519060200190610287929190610d1d565b50905050505050505050505050505050565b60015481565b6000602052806000526040600020600091509050806000015490806001018054600181600116156101000203166002900480601f0160208091040260200160405190810160405280929190818152602001828054600181600116156101000203166002900480156103515780601f1061032657610100808354040283529160200191610351565b820191906000526020600020905b81548152906001019060200180831161033457829003601f168201915b505050505090806002018054600181600116156101000203166002900480601f0160208091040260200160405190810160405280929190818152602001828054600181600116156101000203166002900480156103ef5780601f106103c4576101008083540402835291602001916103ef565b820191906000526020600020905b8154815290600101906020018083116103d257829003601f168201915b505050505090806003018054600181600116156101000203166002900480601f01602080910402602001604051908101604052809291908181526020018280546001816001161561010002031660029004801561048d5780601f106104625761010080835404028352916020019161048d565b820191906000526020600020905b81548152906001019060200180831161047057829003601f168201915b505050505090806004018054600181600116156101000203166002900480601f01602080910402602001604051908101604052809291908181526020018280546001816001161561010002031660029004801561052b5780601f106105005761010080835404028352916020019161052b565b820191906000526020600020905b81548152906001019060200180831161050e57829003601f168201915b505050505090806005018054600181600116156101000203166002900480601f0160208091040260200160405190810160405280929190818152602001828054600181600116156101000203166002900480156105c95780601f1061059e576101008083540402835291602001916105c9565b820191906000526020600020905b8154815290600101906020018083116105ac57829003601f168201915b505050505090806006018054600181600116156101000203166002900480601f0160208091040260200160405190810160405280929190818152602001828054600181600116156101000203166002900480156106675780601f1061063c57610100808354040283529160200191610667565b820191906000526020600020905b81548152906001019060200180831161064a57829003601f168201915b505050505090806007018054600181600116156101000203166002900480601f0160208091040260200160405190810160405280929190818152602001828054600181600116156101000203166002900480156107055780601f106106da57610100808354040283529160200191610705565b820191906000526020600020905b8154815290600101906020018083116106e857829003601f168201915b505050505090806008018054600181600116156101000203166002900480601f0160208091040260200160405190810160405280929190818152602001828054600181600116156101000203166002900480156107a35780601f10610778576101008083540402835291602001916107a3565b820191906000526020600020905b81548152906001019060200180831161078657829003601f168201915b505050505090806009018054600181600116156101000203166002900480601f0160208091040260200160405190810160405280929190818152602001828054600181600116156101000203166002900480156108415780601f1061081657610100808354040283529160200191610841565b820191906000526020600020905b81548152906001019060200180831161082457829003601f168201915b50505050509080600a018054600181600116156101000203166002900480601f0160208091040260200160405190810160405280929190818152602001828054600181600116156101000203166002900480156108df5780601f106108b4576101008083540402835291602001916108df565b820191906000526020600020905b8154815290600101906020018083116108c257829003601f168201915b505050505090508b565b600081600001511415610931576040517f08c379a0000000000000000000000000000000000000000000000000000000008152600401610928906114fe565b60405180910390fd5b600081602001515111610979576040517f08c379a00000000000000000000000000000000000000000000000000000000081526004016109709061161e565b60405180910390fd5b6000816040015151116109c1576040517f08c379a00000000000000000000000000000000000000000000000000000000081526004016109b89061157e565b60405180910390fd5b6060816060015190506040516109d690611494565b604051809103902081805190602001201480610a0b57506040516109f9906114a9565b60405180910390208180519060200120145b610a4a576040517f08c379a0000000000000000000000000000000000000000000000000000000008152600401610a419061151e565b60405180910390fd5b600082608001515111610a92576040517f08c379a0000000000000000000000000000000000000000000000000000000008152600401610a899061155e565b60405180910390fd5b60008260a001515111610ada576040517f08c379a0000000000000000000000000000000000000000000000000000000008152600401610ad1906114de565b60405180910390fd5b60008260c001515111610b22576040517f08c379a0000000000000000000000000000000000000000000000000000000008152600401610b199061159e565b60405180910390fd5b60008260e001515111610b6a576040517f08c379a0000000000000000000000000000000000000000000000000000000008152600401610b61906115de565b60405180910390fd5b60008261010001515111610bb3576040517f08c379a0000000000000000000000000000000000000000000000000000000008152600401610baa9061153e565b60405180910390fd5b60008261012001515111610bfc576040517f08c379a0000000000000000000000000000000000000000000000000000000008152600401610bf3906115fe565b60405180910390fd5b60008261014001515111610c45576040517f08c379a0000000000000000000000000000000000000000000000000000000008152600401610c3c906115be565b60405180910390fd5b60008090505b600154811015610cbe578260000151600080838152602001908152602001600020600001541415610cb1576040517f08c379a0000000000000000000000000000000000000000000000000000000008152600401610ca8906114be565b60405180910390fd5b8080600101915050610c4b565b505050565b60405180610160016040528060008152602001606081526020016060815260200160608152602001606081526020016060815260200160608152602001606081526020016060815260200160608152602001606081525090565b828054600181600116156101000203166002900490600052602060002090601f016020900481019282601f10610d5e57805160ff1916838001178555610d8c565b82800160010185558215610d8c579182015b82811115610d8b578251825591602001919060010190610d70565b5b509050610d999190610d9d565b5090565b610dbf91905b80821115610dbb576000816000905550600101610da3565b5090565b90565b600082601f830112610dd357600080fd5b8135610de6610de182611777565b61174a565b91508082526020830160208301858383011115610e0257600080fd5b610e0d8382846117d4565b50505092915050565b600081359050610e2581611827565b92915050565b600060208284031215610e3d57600080fd5b6000610e4b84828501610e16565b91505092915050565b60008060008060008060008060008060006101608c8e031215610e7657600080fd5b6000610e848e828f01610e16565b9b505060208c013567ffffffffffffffff811115610ea157600080fd5b610ead8e828f01610dc2565b9a505060408c013567ffffffffffffffff811115610eca57600080fd5b610ed68e828f01610dc2565b99505060608c013567ffffffffffffffff811115610ef357600080fd5b610eff8e828f01610dc2565b98505060808c013567ffffffffffffffff811115610f1c57600080fd5b610f288e828f01610dc2565b97505060a08c013567ffffffffffffffff811115610f4557600080fd5b610f518e828f01610dc2565b96505060c08c013567ffffffffffffffff811115610f6e57600080fd5b610f7a8e828f01610dc2565b95505060e08c013567ffffffffffffffff811115610f9757600080fd5b610fa38e828f01610dc2565b9450506101008c013567ffffffffffffffff811115610fc157600080fd5b610fcd8e828f01610dc2565b9350506101208c013567ffffffffffffffff811115610feb57600080fd5b610ff78e828f01610dc2565b9250506101408c013567ffffffffffffffff81111561101557600080fd5b6110218e828f01610dc2565b9150509295989b509295989b9093969950565b600061103f826117a3565b61104981856117ae565b93506110598185602086016117e3565b61106281611816565b840191505092915050565b600061107a601b836117ae565b91507f726567697374726174696f6e206d75737420626520756e6971756500000000006000830152602082019050919050565b60006110ba6018836117ae565b91507f6d6f74686572206d757374206e6f7420626520656d70747900000000000000006000830152602082019050919050565b60006110fa601e836117ae565b91507f726567697374726174696f6e206d757374206e6f7420626520656d70747900006000830152602082019050919050565b600061113a6019836117ae565b91507f67656e646572206d757374206e6f74206265204d206f722046000000000000006000830152602082019050919050565b600061117a6025836117ae565b91507f6d617465726e616c4772616e64666174686572206d757374206e6f742062652060008301527f656d7074790000000000000000000000000000000000000000000000000000006020830152604082019050919050565b60006111e06001836117bf565b91507f4d000000000000000000000000000000000000000000000000000000000000006000830152600182019050919050565b60006112206018836117ae565b91507f666174686572206d757374206e6f7420626520656d70747900000000000000006000830152602082019050919050565b60006112606016836117ae565b91507f63697479206d757374206e6f7420626520656d707479000000000000000000006000830152602082019050919050565b60006112a06025836117ae565b91507f70617465726e616c4772616e64666174686572206d757374206e6f742062652060008301527f656d7074790000000000000000000000000000000000000000000000000000006020830152604082019050919050565b60006113066019836117ae565b91507f7769746e657373206d757374206e6f7420626520656d707479000000000000006000830152602082019050919050565b60006113466025836117ae565b91507f70617465726e616c4772616e646d6f74686572206d757374206e6f742062652060008301527f656d7074790000000000000000000000000000000000000000000000000000006020830152604082019050919050565b60006113ac6025836117ae565b91507f6d617465726e616c4772616e646d6f74686572206d757374206e6f742062652060008301527f656d7074790000000000000000000000000000000000000000000000000000006020830152604082019050919050565b60006114126001836117bf565b91507f46000000000000000000000000000000000000000000000000000000000000006000830152600182019050919050565b60006114526016836117ae565b91507f6e616d65206d757374206e6f7420626520656d707479000000000000000000006000830152602082019050919050565b61148e816117ca565b82525050565b600061149f826111d3565b9150819050919050565b60006114b482611405565b9150819050919050565b600060208201905081810360008301526114d78161106d565b9050919050565b600060208201905081810360008301526114f7816110ad565b9050919050565b60006020820190508181036000830152611517816110ed565b9050919050565b600060208201905081810360008301526115378161112d565b9050919050565b600060208201905081810360008301526115578161116d565b9050919050565b6000602082019050818103600083015261157781611213565b9050919050565b6000602082019050818103600083015261159781611253565b9050919050565b600060208201905081810360008301526115b781611293565b9050919050565b600060208201905081810360008301526115d7816112f9565b9050919050565b600060208201905081810360008301526115f781611339565b9050919050565b600060208201905081810360008301526116178161139f565b9050919050565b6000602082019050818103600083015261163781611445565b9050919050565b60006020820190506116536000830184611485565b92915050565b60006101608201905061166f600083018e611485565b8181036020830152611681818d611034565b90508181036040830152611695818c611034565b905081810360608301526116a9818b611034565b905081810360808301526116bd818a611034565b905081810360a08301526116d18189611034565b905081810360c08301526116e58188611034565b905081810360e08301526116f98187611034565b905081810361010083015261170e8186611034565b90508181036101208301526117238185611034565b90508181036101408301526117388184611034565b90509c9b505050505050505050505050565b6000604051905081810181811067ffffffffffffffff8211171561176d57600080fd5b8060405250919050565b600067ffffffffffffffff82111561178e57600080fd5b601f19601f8301169050602081019050919050565b600081519050919050565b600082825260208201905092915050565b600081905092915050565b6000819050919050565b82818337600083830152505050565b60005b838110156118015780820151818401526020810190506117e6565b83811115611810576000848401525b50505050565b6000601f19601f8301169050919050565b611830816117ca565b811461183b57600080fd5b5056fea265627a7a723058206ef4f08774b64a320bb731cdf1374bbd10de908b50f04d282df79f57379ce3a86c6578706572696d656e74616cf50037",
  "source": "pragma solidity 0.5.8;\npragma experimental ABIEncoderV2;\n\ncontract Notary {\n\n   struct BirthCertificate {\n        uint registration;\n        string name;\n        string city;\n        string gender;\n        string father;\n        string mother;\n        string paternalGrandfather;\n        string paternalGrandmother;\n        string maternalGrandfather;\n        string maternalGrandmother;\n        string witness;\n    }\n    // Read/write Certificates\n    mapping(uint => BirthCertificate) public birthCertificates;\n    uint public birthCertificateCount;\n\n    constructor() public {}\n\n    function createBirthCertificate ( uint _registration,\n                                string memory _name,\n                                string memory _city,\n                                string memory _gender,\n                                string memory _father,\n                                string memory _mother,\n                                string memory _paternalGrandfather,\n                                string memory _paternalGrandmother,\n                                string memory _maternalGrandfather,\n                                string memory _maternalGrandmother,\n                                string memory _witness ) public {\n\n        birthCertificateCount ++;\n        BirthCertificate memory certificate;\n        certificate.registration = _registration;\n        certificate.name = _name;\n        certificate.city = _city;\n        certificate.gender = _gender;\n        certificate.father = _father;\n        certificate.mother = _mother;\n        certificate.paternalGrandfather = _paternalGrandfather;\n        certificate.paternalGrandmother = _paternalGrandmother;\n        certificate.maternalGrandfather = _maternalGrandfather;\n        certificate.maternalGrandmother = _maternalGrandmother;\n        certificate.witness = _witness;\n\n        validateBirthCertificate(certificate);\n\n        birthCertificates[birthCertificateCount] = certificate;\n    }\n\n    // function vote (uint _candidateId) public {\n    //     // // require that they haven't voted before\n    //     // require(!voters[msg.sender]);\n\n    //     // // require a valid candidate\n    //     // require(_candidateId > 0 && _candidateId <= certificateCount);\n\n    //     // // record that voter has voted\n    //     // voters[msg.sender] = true;\n\n    //     // // update candidate vote Count\n    //     // candidates[_candidateId].voteCount ++;\n    // }\n\n    function validateBirthCertificate(BirthCertificate memory certificate) private {\n        require(certificate.registration != 0, 'registration must not be empty');\n        require(bytes(certificate.name).length > 0, 'name must not be empty');\n        require(bytes(certificate.city).length > 0, 'city must not be empty');\n        bytes memory gender = bytes(certificate.gender);\n        require(keccak256(gender) == keccak256('M') || keccak256(gender) == keccak256('F'), 'gender must not be M or F');\n        require(bytes(certificate.father).length > 0, 'father must not be empty');\n        require(bytes(certificate.mother).length > 0, 'mother must not be empty');\n        require(bytes(certificate.paternalGrandfather).length > 0, 'paternalGrandfather must not be empty');\n        require(bytes(certificate.paternalGrandmother).length > 0, 'paternalGrandmother must not be empty');\n        require(bytes(certificate.maternalGrandfather).length > 0, 'maternalGrandfather must not be empty');\n        require(bytes(certificate.maternalGrandmother).length > 0, 'maternalGrandmother must not be empty');\n        require(bytes(certificate.witness).length > 0, 'witness must not be empty');\n\n        for ( uint i=0; i < birthCertificateCount; i++ ) {\n            require(birthCertificates[i].registration != certificate.registration, 'registration must be unique');\n        }\n    }\n}",
  "sourcePath": "/Users/douglasmandarino/Documents/PUC/Blockchain/BirthCertificate/contracts/Notary.sol",
  "compiler": {
    "name": "solc",
    "version": "0.5.8+commit.23d335f2.Emscripten.clang"
  },
  "schemaVersion": "3.0.16",
  "updatedAt": "2019-10-20T00:44:14.368Z",
  "devdoc": {
    "methods": {}
  },
  "userdoc": {
    "methods": {}
  }
}