{
  "contractName": "Notary",
  "abi": [
    {
      "constant": true,
      "inputs": [],
      "name": "birthCertificateNumber",
      "outputs": [
        {
          "name": "",
          "type": "uint256"
        }
      ],
      "payable": false,
      "stateMutability": "view",
      "type": "function"
    },
    {
      "constant": true,
      "inputs": [
        {
          "name": "",
          "type": "uint256"
        }
      ],
      "name": "birthCertificates",
      "outputs": [
        {
          "name": "registration",
          "type": "uint256"
        },
        {
          "name": "name",
          "type": "string"
        },
        {
          "name": "city",
          "type": "string"
        },
        {
          "name": "gender",
          "type": "string"
        },
        {
          "name": "father",
          "type": "string"
        },
        {
          "name": "mother",
          "type": "string"
        },
        {
          "name": "paternalGrandfather",
          "type": "string"
        },
        {
          "name": "paternalGrandmother",
          "type": "string"
        },
        {
          "name": "maternalGrandfather",
          "type": "string"
        },
        {
          "name": "maternalGrandmother",
          "type": "string"
        },
        {
          "name": "witness",
          "type": "string"
        }
      ],
      "payable": false,
      "stateMutability": "view",
      "type": "function"
    },
    {
      "inputs": [],
      "payable": false,
      "stateMutability": "nonpayable",
      "type": "constructor"
    },
    {
      "constant": false,
      "inputs": [
        {
          "name": "_registration",
          "type": "uint256"
        },
        {
          "name": "_name",
          "type": "string"
        },
        {
          "name": "_city",
          "type": "string"
        },
        {
          "name": "_gender",
          "type": "string"
        },
        {
          "name": "_father",
          "type": "string"
        },
        {
          "name": "_mother",
          "type": "string"
        },
        {
          "name": "_paternalGrandfather",
          "type": "string"
        },
        {
          "name": "_paternalGrandmother",
          "type": "string"
        },
        {
          "name": "_maternalGrandfather",
          "type": "string"
        },
        {
          "name": "_maternalGrandmother",
          "type": "string"
        },
        {
          "name": "_witness",
          "type": "string"
        }
      ],
      "name": "createBirthCertificate",
      "outputs": [],
      "payable": false,
      "stateMutability": "nonpayable",
      "type": "function"
    },
    {
      "constant": true,
      "inputs": [],
      "name": "get",
      "outputs": [
        {
          "name": "",
          "type": "string"
        }
      ],
      "payable": false,
      "stateMutability": "view",
      "type": "function"
    }
  ],
  "bytecode": "0x608060405234801561001057600080fd5b50611f9b806100206000396000f3fe608060405234801561001057600080fd5b506004361061004c5760003560e01c80631c3fe776146100515780636d4ce63c1461006d5780636e2c8f881461008b578063e13b3462146100a9575b600080fd5b61006b60048036036100669190810190611511565b6100e3565b005b6100756102c2565b6040516100829190611bb4565b60405180910390f35b610093610956565b6040516100a09190611d56565b60405180910390f35b6100c360048036036100be91908101906114e8565b61095c565b6040516100da9b9a99989796959493929190611d71565b60405180910390f35b6001600081548092919060010191905055506100fd611380565b8b8160000181815250508a8160200181905250898160400181905250888160600181905250878160800181905250868160a00181905250858160c00181905250848160e0018190525083816101000181905250828161012001819052508181610140018190525061016d81610fa6565b8060008060015481526020019081526020016000206000820151816000015560208201518160010190805190602001906101a89291906113da565b5060408201518160020190805190602001906101c59291906113da565b5060608201518160030190805190602001906101e29291906113da565b5060808201518160040190805190602001906101ff9291906113da565b5060a082015181600501908051906020019061021c9291906113da565b5060c08201518160060190805190602001906102399291906113da565b5060e08201518160070190805190602001906102569291906113da565b506101008201518160080190805190602001906102749291906113da565b506101208201518160090190805190602001906102929291906113da565b5061014082015181600a0190805190602001906102b09291906113da565b50905050505050505050505050505050565b60606102cc611380565b600080600181526020019081526020016000206040518061016001604052908160008201548152602001600182018054600181600116156101000203166002900480601f01602080910402602001604051908101604052809291908181526020018280546001816001161561010002031660029004801561038e5780601f106103635761010080835404028352916020019161038e565b820191906000526020600020905b81548152906001019060200180831161037157829003601f168201915b50505050508152602001600282018054600181600116156101000203166002900480601f0160208091040260200160405190810160405280929190818152602001828054600181600116156101000203166002900480156104305780601f1061040557610100808354040283529160200191610430565b820191906000526020600020905b81548152906001019060200180831161041357829003601f168201915b50505050508152602001600382018054600181600116156101000203166002900480601f0160208091040260200160405190810160405280929190818152602001828054600181600116156101000203166002900480156104d25780601f106104a7576101008083540402835291602001916104d2565b820191906000526020600020905b8154815290600101906020018083116104b557829003601f168201915b50505050508152602001600482018054600181600116156101000203166002900480601f0160208091040260200160405190810160405280929190818152602001828054600181600116156101000203166002900480156105745780601f1061054957610100808354040283529160200191610574565b820191906000526020600020905b81548152906001019060200180831161055757829003601f168201915b50505050508152602001600582018054600181600116156101000203166002900480601f0160208091040260200160405190810160405280929190818152602001828054600181600116156101000203166002900480156106165780601f106105eb57610100808354040283529160200191610616565b820191906000526020600020905b8154815290600101906020018083116105f957829003601f168201915b50505050508152602001600682018054600181600116156101000203166002900480601f0160208091040260200160405190810160405280929190818152602001828054600181600116156101000203166002900480156106b85780601f1061068d576101008083540402835291602001916106b8565b820191906000526020600020905b81548152906001019060200180831161069b57829003601f168201915b50505050508152602001600782018054600181600116156101000203166002900480601f01602080910402602001604051908101604052809291908181526020018280546001816001161561010002031660029004801561075a5780601f1061072f5761010080835404028352916020019161075a565b820191906000526020600020905b81548152906001019060200180831161073d57829003601f168201915b50505050508152602001600882018054600181600116156101000203166002900480601f0160208091040260200160405190810160405280929190818152602001828054600181600116156101000203166002900480156107fc5780601f106107d1576101008083540402835291602001916107fc565b820191906000526020600020905b8154815290600101906020018083116107df57829003601f168201915b50505050508152602001600982018054600181600116156101000203166002900480601f01602080910402602001604051908101604052809291908181526020018280546001816001161561010002031660029004801561089e5780601f106108735761010080835404028352916020019161089e565b820191906000526020600020905b81548152906001019060200180831161088157829003601f168201915b50505050508152602001600a82018054600181600116156101000203166002900480601f0160208091040260200160405190810160405280929190818152602001828054600181600116156101000203166002900480156109405780601f1061091557610100808354040283529160200191610940565b820191906000526020600020905b81548152906001019060200180831161092357829003601f168201915b5050505050815250509050806020015191505090565b60015481565b6000602052806000526040600020600091509050806000015490806001018054600181600116156101000203166002900480601f016020809104026020016040519081016040528092919081815260200182805460018160011615610100020316600290048015610a0e5780601f106109e357610100808354040283529160200191610a0e565b820191906000526020600020905b8154815290600101906020018083116109f157829003601f168201915b505050505090806002018054600181600116156101000203166002900480601f016020809104026020016040519081016040528092919081815260200182805460018160011615610100020316600290048015610aac5780601f10610a8157610100808354040283529160200191610aac565b820191906000526020600020905b815481529060010190602001808311610a8f57829003601f168201915b505050505090806003018054600181600116156101000203166002900480601f016020809104026020016040519081016040528092919081815260200182805460018160011615610100020316600290048015610b4a5780601f10610b1f57610100808354040283529160200191610b4a565b820191906000526020600020905b815481529060010190602001808311610b2d57829003601f168201915b505050505090806004018054600181600116156101000203166002900480601f016020809104026020016040519081016040528092919081815260200182805460018160011615610100020316600290048015610be85780601f10610bbd57610100808354040283529160200191610be8565b820191906000526020600020905b815481529060010190602001808311610bcb57829003601f168201915b505050505090806005018054600181600116156101000203166002900480601f016020809104026020016040519081016040528092919081815260200182805460018160011615610100020316600290048015610c865780601f10610c5b57610100808354040283529160200191610c86565b820191906000526020600020905b815481529060010190602001808311610c6957829003601f168201915b505050505090806006018054600181600116156101000203166002900480601f016020809104026020016040519081016040528092919081815260200182805460018160011615610100020316600290048015610d245780601f10610cf957610100808354040283529160200191610d24565b820191906000526020600020905b815481529060010190602001808311610d0757829003601f168201915b505050505090806007018054600181600116156101000203166002900480601f016020809104026020016040519081016040528092919081815260200182805460018160011615610100020316600290048015610dc25780601f10610d9757610100808354040283529160200191610dc2565b820191906000526020600020905b815481529060010190602001808311610da557829003601f168201915b505050505090806008018054600181600116156101000203166002900480601f016020809104026020016040519081016040528092919081815260200182805460018160011615610100020316600290048015610e605780601f10610e3557610100808354040283529160200191610e60565b820191906000526020600020905b815481529060010190602001808311610e4357829003601f168201915b505050505090806009018054600181600116156101000203166002900480601f016020809104026020016040519081016040528092919081815260200182805460018160011615610100020316600290048015610efe5780601f10610ed357610100808354040283529160200191610efe565b820191906000526020600020905b815481529060010190602001808311610ee157829003601f168201915b50505050509080600a018054600181600116156101000203166002900480601f016020809104026020016040519081016040528092919081815260200182805460018160011615610100020316600290048015610f9c5780601f10610f7157610100808354040283529160200191610f9c565b820191906000526020600020905b815481529060010190602001808311610f7f57829003601f168201915b505050505090508b565b600081600001511415610fee576040517f08c379a0000000000000000000000000000000000000000000000000000000008152600401610fe590611c16565b60405180910390fd5b600081602001515111611036576040517f08c379a000000000000000000000000000000000000000000000000000000000815260040161102d90611d36565b60405180910390fd5b60008160400151511161107e576040517f08c379a000000000000000000000000000000000000000000000000000000000815260040161107590611c96565b60405180910390fd5b60608160600151905060405161109390611b8a565b6040518091039020818051906020012014806110c857506040516110b690611b9f565b60405180910390208180519060200120145b611107576040517f08c379a00000000000000000000000000000000000000000000000000000000081526004016110fe90611c36565b60405180910390fd5b60008260800151511161114f576040517f08c379a000000000000000000000000000000000000000000000000000000000815260040161114690611c76565b60405180910390fd5b60008260a001515111611197576040517f08c379a000000000000000000000000000000000000000000000000000000000815260040161118e90611bf6565b60405180910390fd5b60008260c0015151116111df576040517f08c379a00000000000000000000000000000000000000000000000000000000081526004016111d690611cb6565b60405180910390fd5b60008260e001515111611227576040517f08c379a000000000000000000000000000000000000000000000000000000000815260040161121e90611cf6565b60405180910390fd5b60008261010001515111611270576040517f08c379a000000000000000000000000000000000000000000000000000000000815260040161126790611c56565b60405180910390fd5b600082610120015151116112b9576040517f08c379a00000000000000000000000000000000000000000000000000000000081526004016112b090611d16565b60405180910390fd5b60008261014001515111611302576040517f08c379a00000000000000000000000000000000000000000000000000000000081526004016112f990611cd6565b60405180910390fd5b60008090505b60015481101561137b57826000015160008083815260200190815260200160002060000154141561136e576040517f08c379a000000000000000000000000000000000000000000000000000000000815260040161136590611bd6565b60405180910390fd5b8080600101915050611308565b505050565b60405180610160016040528060008152602001606081526020016060815260200160608152602001606081526020016060815260200160608152602001606081526020016060815260200160608152602001606081525090565b828054600181600116156101000203166002900490600052602060002090601f016020900481019282601f1061141b57805160ff1916838001178555611449565b82800160010185558215611449579182015b8281111561144857825182559160200191906001019061142d565b5b509050611456919061145a565b5090565b61147c91905b80821115611478576000816000905550600101611460565b5090565b90565b600082601f83011261149057600080fd5b81356114a361149e82611e8f565b611e62565b915080825260208301602083018583830111156114bf57600080fd5b6114ca838284611ef7565b50505092915050565b6000813590506114e281611f4a565b92915050565b6000602082840312156114fa57600080fd5b6000611508848285016114d3565b91505092915050565b60008060008060008060008060008060006101608c8e03121561153357600080fd5b60006115418e828f016114d3565b9b505060208c013567ffffffffffffffff81111561155e57600080fd5b61156a8e828f0161147f565b9a505060408c013567ffffffffffffffff81111561158757600080fd5b6115938e828f0161147f565b99505060608c013567ffffffffffffffff8111156115b057600080fd5b6115bc8e828f0161147f565b98505060808c013567ffffffffffffffff8111156115d957600080fd5b6115e58e828f0161147f565b97505060a08c013567ffffffffffffffff81111561160257600080fd5b61160e8e828f0161147f565b96505060c08c013567ffffffffffffffff81111561162b57600080fd5b6116378e828f0161147f565b95505060e08c013567ffffffffffffffff81111561165457600080fd5b6116608e828f0161147f565b9450506101008c013567ffffffffffffffff81111561167e57600080fd5b61168a8e828f0161147f565b9350506101208c013567ffffffffffffffff8111156116a857600080fd5b6116b48e828f0161147f565b9250506101408c013567ffffffffffffffff8111156116d257600080fd5b6116de8e828f0161147f565b9150509295989b509295989b9093969950565b60006116fc82611ec6565b6117068185611ed1565b9350611716818560208601611f06565b61171f81611f39565b840191505092915050565b600061173582611ebb565b61173f8185611ed1565b935061174f818560208601611f06565b61175881611f39565b840191505092915050565b6000611770601b83611ed1565b91507f726567697374726174696f6e206d75737420626520756e6971756500000000006000830152602082019050919050565b60006117b0601883611ed1565b91507f6d6f74686572206d757374206e6f7420626520656d70747900000000000000006000830152602082019050919050565b60006117f0601e83611ed1565b91507f726567697374726174696f6e206d757374206e6f7420626520656d70747900006000830152602082019050919050565b6000611830601983611ed1565b91507f67656e646572206d757374206e6f74206265204d206f722046000000000000006000830152602082019050919050565b6000611870602583611ed1565b91507f6d617465726e616c4772616e64666174686572206d757374206e6f742062652060008301527f656d7074790000000000000000000000000000000000000000000000000000006020830152604082019050919050565b60006118d6600183611ee2565b91507f4d000000000000000000000000000000000000000000000000000000000000006000830152600182019050919050565b6000611916601883611ed1565b91507f666174686572206d757374206e6f7420626520656d70747900000000000000006000830152602082019050919050565b6000611956601683611ed1565b91507f63697479206d757374206e6f7420626520656d707479000000000000000000006000830152602082019050919050565b6000611996602583611ed1565b91507f70617465726e616c4772616e64666174686572206d757374206e6f742062652060008301527f656d7074790000000000000000000000000000000000000000000000000000006020830152604082019050919050565b60006119fc601983611ed1565b91507f7769746e657373206d757374206e6f7420626520656d707479000000000000006000830152602082019050919050565b6000611a3c602583611ed1565b91507f70617465726e616c4772616e646d6f74686572206d757374206e6f742062652060008301527f656d7074790000000000000000000000000000000000000000000000000000006020830152604082019050919050565b6000611aa2602583611ed1565b91507f6d617465726e616c4772616e646d6f74686572206d757374206e6f742062652060008301527f656d7074790000000000000000000000000000000000000000000000000000006020830152604082019050919050565b6000611b08600183611ee2565b91507f46000000000000000000000000000000000000000000000000000000000000006000830152600182019050919050565b6000611b48601683611ed1565b91507f6e616d65206d757374206e6f7420626520656d707479000000000000000000006000830152602082019050919050565b611b8481611eed565b82525050565b6000611b95826118c9565b9150819050919050565b6000611baa82611afb565b9150819050919050565b60006020820190508181036000830152611bce81846116f1565b905092915050565b60006020820190508181036000830152611bef81611763565b9050919050565b60006020820190508181036000830152611c0f816117a3565b9050919050565b60006020820190508181036000830152611c2f816117e3565b9050919050565b60006020820190508181036000830152611c4f81611823565b9050919050565b60006020820190508181036000830152611c6f81611863565b9050919050565b60006020820190508181036000830152611c8f81611909565b9050919050565b60006020820190508181036000830152611caf81611949565b9050919050565b60006020820190508181036000830152611ccf81611989565b9050919050565b60006020820190508181036000830152611cef816119ef565b9050919050565b60006020820190508181036000830152611d0f81611a2f565b9050919050565b60006020820190508181036000830152611d2f81611a95565b9050919050565b60006020820190508181036000830152611d4f81611b3b565b9050919050565b6000602082019050611d6b6000830184611b7b565b92915050565b600061016082019050611d87600083018e611b7b565b8181036020830152611d99818d61172a565b90508181036040830152611dad818c61172a565b90508181036060830152611dc1818b61172a565b90508181036080830152611dd5818a61172a565b905081810360a0830152611de9818961172a565b905081810360c0830152611dfd818861172a565b905081810360e0830152611e11818761172a565b9050818103610100830152611e26818661172a565b9050818103610120830152611e3b818561172a565b9050818103610140830152611e50818461172a565b90509c9b505050505050505050505050565b6000604051905081810181811067ffffffffffffffff82111715611e8557600080fd5b8060405250919050565b600067ffffffffffffffff821115611ea657600080fd5b601f19601f8301169050602081019050919050565b600081519050919050565b600081519050919050565b600082825260208201905092915050565b600081905092915050565b6000819050919050565b82818337600083830152505050565b60005b83811015611f24578082015181840152602081019050611f09565b83811115611f33576000848401525b50505050565b6000601f19601f8301169050919050565b611f5381611eed565b8114611f5e57600080fd5b5056fea265627a7a72305820e104dd639123283410613f6593e0838b918c71b019e612e69452756fa590a50f6c6578706572696d656e74616cf50037",
  "source": "pragma solidity 0.5.8;\npragma experimental ABIEncoderV2;\n\ncontract Notary {\n\n   struct BirthCertificate {\n        uint registration;\n        string name;\n        string city;\n        string gender;\n        string father;\n        string mother;\n        string paternalGrandfather;\n        string paternalGrandmother;\n        string maternalGrandfather;\n        string maternalGrandmother;\n        string witness;\n    }\n    // Read/write Certificates\n    mapping(uint => BirthCertificate) public birthCertificates;\n    uint public birthCertificateNumber;\n\n    constructor() public {}\n\n    function createBirthCertificate ( uint _registration,\n                                string memory _name,\n                                string memory _city,\n                                string memory _gender,\n                                string memory _father,\n                                string memory _mother,\n                                string memory _paternalGrandfather,\n                                string memory _paternalGrandmother,\n                                string memory _maternalGrandfather,\n                                string memory _maternalGrandmother,\n                                string memory _witness ) public {\n\n        birthCertificateNumber ++;\n        BirthCertificate memory certificate;\n        certificate.registration = _registration;\n        certificate.name = _name;\n        certificate.city = _city;\n        certificate.gender = _gender;\n        certificate.father = _father;\n        certificate.mother = _mother;\n        certificate.paternalGrandfather = _paternalGrandfather;\n        certificate.paternalGrandmother = _paternalGrandmother;\n        certificate.maternalGrandfather = _maternalGrandfather;\n        certificate.maternalGrandmother = _maternalGrandmother;\n        certificate.witness = _witness;\n\n        validateBirthCertificate(certificate);\n\n        birthCertificates[birthCertificateNumber] = certificate;\n    }\n\n    // function vote (uint _candidateId) public {\n    //     // // require that they haven't voted before\n    //     // require(!voters[msg.sender]);\n\n    //     // // require a valid candidate\n    //     // require(_candidateId > 0 && _candidateId <= certificateCount);\n\n    //     // // record that voter has voted\n    //     // voters[msg.sender] = true;\n\n    //     // // update candidate vote Count\n    //     // candidates[_candidateId].voteCount ++;\n    // }\n\n\n    function get() public view returns (string memory) {\n        BirthCertificate memory certificate = birthCertificates[1];\n        return certificate.name;\n    }\n\n    function validateBirthCertificate(BirthCertificate memory certificate) private {\n        require(certificate.registration != 0, 'registration must not be empty');\n        require(bytes(certificate.name).length > 0, 'name must not be empty');\n        require(bytes(certificate.city).length > 0, 'city must not be empty');\n        bytes memory gender = bytes(certificate.gender);\n        require(keccak256(gender) == keccak256('M') || keccak256(gender) == keccak256('F'), 'gender must not be M or F');\n        require(bytes(certificate.father).length > 0, 'father must not be empty');\n        require(bytes(certificate.mother).length > 0, 'mother must not be empty');\n        require(bytes(certificate.paternalGrandfather).length > 0, 'paternalGrandfather must not be empty');\n        require(bytes(certificate.paternalGrandmother).length > 0, 'paternalGrandmother must not be empty');\n        require(bytes(certificate.maternalGrandfather).length > 0, 'maternalGrandfather must not be empty');\n        require(bytes(certificate.maternalGrandmother).length > 0, 'maternalGrandmother must not be empty');\n        require(bytes(certificate.witness).length > 0, 'witness must not be empty');\n\n        for ( uint i=0; i < birthCertificateNumber; i++ ) {\n            require(birthCertificates[i].registration != certificate.registration, 'registration must be unique');\n        }\n    }\n}",
  "sourcePath": "/Users/douglasmandarino/Documents/PUC/Blockchain/BirthCertificate/contracts/Notary.sol",
  "compiler": {
    "name": "solc",
    "version": "0.5.8+commit.23d335f2.Emscripten.clang"
  },
  "schemaVersion": "3.0.16",
  "updatedAt": "2019-10-21T04:57:36.236Z",
  "devdoc": {
    "methods": {}
  },
  "userdoc": {
    "methods": {}
  }
}