{
  "contractName": "Notary",
  "abi": [
    {
      "constant": true,
      "inputs": [],
      "name": "certificateCount",
      "outputs": [
        {
          "name": "",
          "type": "uint256"
        }
      ],
      "payable": false,
      "stateMutability": "view",
      "type": "function"
    },
    {
      "constant": true,
      "inputs": [
        {
          "name": "",
          "type": "uint256"
        }
      ],
      "name": "extras",
      "outputs": [
        {
          "name": "code",
          "type": "uint256"
        },
        {
          "name": "witness",
          "type": "string"
        }
      ],
      "payable": false,
      "stateMutability": "view",
      "type": "function"
    },
    {
      "constant": true,
      "inputs": [
        {
          "name": "",
          "type": "uint256"
        }
      ],
      "name": "people",
      "outputs": [
        {
          "name": "code",
          "type": "uint256"
        },
        {
          "name": "name",
          "type": "string"
        },
        {
          "name": "city",
          "type": "string"
        },
        {
          "name": "gender",
          "type": "string"
        },
        {
          "name": "day",
          "type": "uint256"
        },
        {
          "name": "month",
          "type": "uint256"
        },
        {
          "name": "year",
          "type": "uint256"
        }
      ],
      "payable": false,
      "stateMutability": "view",
      "type": "function"
    },
    {
      "constant": true,
      "inputs": [
        {
          "name": "",
          "type": "uint256"
        }
      ],
      "name": "codePosition",
      "outputs": [
        {
          "name": "",
          "type": "uint256"
        }
      ],
      "payable": false,
      "stateMutability": "view",
      "type": "function"
    },
    {
      "constant": true,
      "inputs": [
        {
          "name": "",
          "type": "uint256"
        }
      ],
      "name": "relativeList",
      "outputs": [
        {
          "name": "code",
          "type": "uint256"
        },
        {
          "name": "father",
          "type": "string"
        },
        {
          "name": "mother",
          "type": "string"
        },
        {
          "name": "paternalGrandfather",
          "type": "string"
        },
        {
          "name": "paternalGrandmother",
          "type": "string"
        },
        {
          "name": "maternalGrandfather",
          "type": "string"
        },
        {
          "name": "maternalGrandmother",
          "type": "string"
        }
      ],
      "payable": false,
      "stateMutability": "view",
      "type": "function"
    },
    {
      "inputs": [],
      "payable": false,
      "stateMutability": "nonpayable",
      "type": "constructor"
    },
    {
      "anonymous": false,
      "inputs": [
        {
          "indexed": true,
          "name": "_code",
          "type": "uint256"
        }
      ],
      "name": "createdEvent",
      "type": "event"
    },
    {
      "constant": false,
      "inputs": [
        {
          "name": "_code",
          "type": "uint256"
        },
        {
          "name": "_name",
          "type": "string"
        },
        {
          "name": "_city",
          "type": "string"
        },
        {
          "name": "_gender",
          "type": "string"
        },
        {
          "name": "_day",
          "type": "uint256"
        },
        {
          "name": "_month",
          "type": "uint256"
        },
        {
          "name": "_year",
          "type": "uint256"
        }
      ],
      "name": "createPerson",
      "outputs": [],
      "payable": false,
      "stateMutability": "nonpayable",
      "type": "function"
    },
    {
      "constant": false,
      "inputs": [
        {
          "name": "_code",
          "type": "uint256"
        },
        {
          "name": "_father",
          "type": "string"
        },
        {
          "name": "_mother",
          "type": "string"
        },
        {
          "name": "_paternalGrandfather",
          "type": "string"
        },
        {
          "name": "_paternalGrandmother",
          "type": "string"
        },
        {
          "name": "_maternalGrandfather",
          "type": "string"
        },
        {
          "name": "_maternalGrandmother",
          "type": "string"
        }
      ],
      "name": "createRelatives",
      "outputs": [],
      "payable": false,
      "stateMutability": "nonpayable",
      "type": "function"
    },
    {
      "constant": true,
      "inputs": [
        {
          "name": "_code",
          "type": "uint256"
        }
      ],
      "name": "getPersonKey",
      "outputs": [
        {
          "name": "",
          "type": "uint256"
        }
      ],
      "payable": false,
      "stateMutability": "view",
      "type": "function"
    }
  ],
  "bytecode": "0x608060405234801561001057600080fd5b50611ca2806100206000396000f3fe608060405234801561001057600080fd5b50600436106100885760003560e01c8063ab5f9e451161005b578063ab5f9e451461012e578063c0d8bf541461015e578063c2bee8f51461017a578063e54a9b5a146101b057610088565b806352d7b89c1461008d5780635468bc2f146100ab57806372960e2f146100dc5780639e7a13ad146100f8575b600080fd5b6100956101e0565b6040516100a29190611a0c565b60405180910390f35b6100c560048036036100c09190810190611165565b6101e6565b6040516100d3929190611a27565b60405180910390f35b6100f660048036036100f1919081019061118e565b6102a2565b005b610112600480360361010d9190810190611165565b6103fb565b6040516101259796959493929190611af0565b60405180910390f35b61014860048036036101439190810190611165565b610605565b6040516101559190611a0c565b60405180910390f35b610178600480360361017391908101906112bc565b61061d565b005b610194600480360361018f9190810190611165565b61076b565b6040516101a79796959493929190611a57565b60405180910390f35b6101ca60048036036101c59190810190611165565b610b3d565b6040516101d79190611a0c565b60405180910390f35b60045481565b6002602052806000526040600020600091509050806000015490806001018054600181600116156101000203166002900480601f0160208091040260200160405190810160405280929190818152602001828054600181600116156101000203166002900480156102985780601f1061026d57610100808354040283529160200191610298565b820191906000526020600020905b81548152906001019060200180831161027b57829003601f168201915b5050505050905082565b6102aa610fdd565b87816000018181525050868160200181905250858160400181905250848160600181905250838160800181905250828160a00181905250818160c001819052506102f381610b5f565b8060016000600454815260200190815260200160002060008201518160000155602082015181600101908051906020019061032f92919061101a565b50604082015181600201908051906020019061034c92919061101a565b50606082015181600301908051906020019061036992919061101a565b50608082015181600401908051906020019061038692919061101a565b5060a08201518160050190805190602001906103a392919061101a565b5060c08201518160060190805190602001906103c092919061101a565b50905050877fa854a749979502a204992acac225fdcbf427947356505ac9c7126f6244f1434460405160405180910390a25050505050505050565b6000602052806000526040600020600091509050806000015490806001018054600181600116156101000203166002900480601f0160208091040260200160405190810160405280929190818152602001828054600181600116156101000203166002900480156104ad5780601f10610482576101008083540402835291602001916104ad565b820191906000526020600020905b81548152906001019060200180831161049057829003601f168201915b505050505090806002018054600181600116156101000203166002900480601f01602080910402602001604051908101604052809291908181526020018280546001816001161561010002031660029004801561054b5780601f106105205761010080835404028352916020019161054b565b820191906000526020600020905b81548152906001019060200180831161052e57829003601f168201915b505050505090806003018054600181600116156101000203166002900480601f0160208091040260200160405190810160405280929190818152602001828054600181600116156101000203166002900480156105e95780601f106105be576101008083540402835291602001916105e9565b820191906000526020600020905b8154815290600101906020018083116105cc57829003601f168201915b5050505050908060040154908060050154908060060154905087565b60036020528060005260406000206000915090505481565b60046000815480929190600101919050555061063761109a565b8781600001818152505086816020018190525085816040018190525084816060018190525083816080018181525050828160a0018181525050818160c001818152505061068381610d6f565b8060008060045481526020019081526020016000206000820151816000015560208201518160010190805190602001906106be92919061101a565b5060408201518160020190805190602001906106db92919061101a565b5060608201518160030190805190602001906106f892919061101a565b506080820151816004015560a0820151816005015560c08201518160060155905050600454600360008a815260200190815260200160002081905550877fa854a749979502a204992acac225fdcbf427947356505ac9c7126f6244f1434460405160405180910390a25050505050505050565b6001602052806000526040600020600091509050806000015490806001018054600181600116156101000203166002900480601f01602080910402602001604051908101604052809291908181526020018280546001816001161561010002031660029004801561081d5780601f106107f25761010080835404028352916020019161081d565b820191906000526020600020905b81548152906001019060200180831161080057829003601f168201915b505050505090806002018054600181600116156101000203166002900480601f0160208091040260200160405190810160405280929190818152602001828054600181600116156101000203166002900480156108bb5780601f10610890576101008083540402835291602001916108bb565b820191906000526020600020905b81548152906001019060200180831161089e57829003601f168201915b505050505090806003018054600181600116156101000203166002900480601f0160208091040260200160405190810160405280929190818152602001828054600181600116156101000203166002900480156109595780601f1061092e57610100808354040283529160200191610959565b820191906000526020600020905b81548152906001019060200180831161093c57829003601f168201915b505050505090806004018054600181600116156101000203166002900480601f0160208091040260200160405190810160405280929190818152602001828054600181600116156101000203166002900480156109f75780601f106109cc576101008083540402835291602001916109f7565b820191906000526020600020905b8154815290600101906020018083116109da57829003601f168201915b505050505090806005018054600181600116156101000203166002900480601f016020809104026020016040519081016040528092919081815260200182805460018160011615610100020316600290048015610a955780601f10610a6a57610100808354040283529160200191610a95565b820191906000526020600020905b815481529060010190602001808311610a7857829003601f168201915b505050505090806006018054600181600116156101000203166002900480601f016020809104026020016040519081016040528092919081815260200182805460018160011615610100020316600290048015610b335780601f10610b0857610100808354040283529160200191610b33565b820191906000526020600020905b815481529060010190602001808311610b1657829003601f168201915b5050505050905087565b6000806003600084815260200190815260200160002054905080915050919050565b600060016000836000015181526020019081526020016000206000015414610bbc576040517f08c379a0000000000000000000000000000000000000000000000000000000008152600401610bb39061196c565b60405180910390fd5b600081602001515111610c04576040517f08c379a0000000000000000000000000000000000000000000000000000000008152600401610bfb906118ec565b60405180910390fd5b600081604001515111610c4c576040517f08c379a0000000000000000000000000000000000000000000000000000000008152600401610c439061188c565b60405180910390fd5b600081606001515111610c94576040517f08c379a0000000000000000000000000000000000000000000000000000000008152600401610c8b9061194c565b60405180910390fd5b600081608001515111610cdc576040517f08c379a0000000000000000000000000000000000000000000000000000000008152600401610cd3906119ac565b60405180910390fd5b60008160a001515111610d24576040517f08c379a0000000000000000000000000000000000000000000000000000000008152600401610d1b906118cc565b60405180910390fd5b60008160c001515111610d6c576040517f08c379a0000000000000000000000000000000000000000000000000000000008152600401610d63906119cc565b60405180910390fd5b50565b6000806000836000015181526020019081526020016000206000015414610dcb576040517f08c379a0000000000000000000000000000000000000000000000000000000008152600401610dc29061196c565b60405180910390fd5b600081602001515111610e13576040517f08c379a0000000000000000000000000000000000000000000000000000000008152600401610e0a906119ec565b60405180910390fd5b600081604001515111610e5b576040517f08c379a0000000000000000000000000000000000000000000000000000000008152600401610e529061192c565b60405180910390fd5b60008160800151118015610e735750601f8160800151105b610eb2576040517f08c379a0000000000000000000000000000000000000000000000000000000008152600401610ea99061186c565b60405180910390fd5b60008160a00151118015610eca5750600d8160a00151105b610f09576040517f08c379a0000000000000000000000000000000000000000000000000000000008152600401610f009061190c565b60405180910390fd5b60008160c0015111610f50576040517f08c379a0000000000000000000000000000000000000000000000000000000008152600401610f479061198c565b60405180910390fd5b606081606001519050604051610f6590611842565b604051809103902081805190602001201480610f9a5750604051610f8890611857565b60405180910390208180519060200120145b610fd9576040517f08c379a0000000000000000000000000000000000000000000000000000000008152600401610fd0906118ac565b60405180910390fd5b5050565b6040518060e00160405280600081526020016060815260200160608152602001606081526020016060815260200160608152602001606081525090565b828054600181600116156101000203166002900490600052602060002090601f016020900481019282601f1061105b57805160ff1916838001178555611089565b82800160010185558215611089579182015b8281111561108857825182559160200191906001019061106d565b5b50905061109691906110d7565b5090565b6040518060e00160405280600081526020016060815260200160608152602001606081526020016000815260200160008152602001600081525090565b6110f991905b808211156110f55760008160009055506001016110dd565b5090565b90565b600082601f83011261110d57600080fd5b813561112061111b82611ba1565b611b74565b9150808252602083016020830185838301111561113c57600080fd5b611147838284611bfe565b50505092915050565b60008135905061115f81611c51565b92915050565b60006020828403121561117757600080fd5b600061118584828501611150565b91505092915050565b600080600080600080600060e0888a0312156111a957600080fd5b60006111b78a828b01611150565b975050602088013567ffffffffffffffff8111156111d457600080fd5b6111e08a828b016110fc565b965050604088013567ffffffffffffffff8111156111fd57600080fd5b6112098a828b016110fc565b955050606088013567ffffffffffffffff81111561122657600080fd5b6112328a828b016110fc565b945050608088013567ffffffffffffffff81111561124f57600080fd5b61125b8a828b016110fc565b93505060a088013567ffffffffffffffff81111561127857600080fd5b6112848a828b016110fc565b92505060c088013567ffffffffffffffff8111156112a157600080fd5b6112ad8a828b016110fc565b91505092959891949750929550565b600080600080600080600060e0888a0312156112d757600080fd5b60006112e58a828b01611150565b975050602088013567ffffffffffffffff81111561130257600080fd5b61130e8a828b016110fc565b965050604088013567ffffffffffffffff81111561132b57600080fd5b6113378a828b016110fc565b955050606088013567ffffffffffffffff81111561135457600080fd5b6113608a828b016110fc565b94505060806113718a828b01611150565b93505060a06113828a828b01611150565b92505060c06113938a828b01611150565b91505092959891949750929550565b60006113ad82611bcd565b6113b78185611bd8565b93506113c7818560208601611c0d565b6113d081611c40565b840191505092915050565b60006113e8600983611bd8565b91507f77726f6e672064617900000000000000000000000000000000000000000000006000830152602082019050919050565b6000611428601883611bd8565b91507f6d6f74686572206d757374206e6f7420626520656d70747900000000000000006000830152602082019050919050565b6000611468601983611bd8565b91507f67656e646572206d757374206e6f74206265204d206f722046000000000000006000830152602082019050919050565b60006114a8602583611bd8565b91507f6d617465726e616c4772616e64666174686572206d757374206e6f742062652060008301527f656d7074790000000000000000000000000000000000000000000000000000006020830152604082019050919050565b600061150e600183611be9565b91507f4d000000000000000000000000000000000000000000000000000000000000006000830152600182019050919050565b600061154e601883611bd8565b91507f666174686572206d757374206e6f7420626520656d70747900000000000000006000830152602082019050919050565b600061158e600b83611bd8565b91507f77726f6e67206d6f6e74680000000000000000000000000000000000000000006000830152602082019050919050565b60006115ce601683611bd8565b91507f63697479206d757374206e6f7420626520656d707479000000000000000000006000830152602082019050919050565b600061160e602583611bd8565b91507f70617465726e616c4772616e64666174686572206d757374206e6f742062652060008301527f656d7074790000000000000000000000000000000000000000000000000000006020830152604082019050919050565b6000611674601383611bd8565b91507f636f6465206d75737420626520756e69717565000000000000000000000000006000830152602082019050919050565b60006116b4601683611bd8565b91507f79656172206d757374206e6f7420626520656d707479000000000000000000006000830152602082019050919050565b60006116f4602583611bd8565b91507f70617465726e616c4772616e646d6f74686572206d757374206e6f742062652060008301527f656d7074790000000000000000000000000000000000000000000000000000006020830152604082019050919050565b600061175a602583611bd8565b91507f6d617465726e616c4772616e646d6f74686572206d757374206e6f742062652060008301527f656d7074790000000000000000000000000000000000000000000000000000006020830152604082019050919050565b60006117c0600183611be9565b91507f46000000000000000000000000000000000000000000000000000000000000006000830152600182019050919050565b6000611800601683611bd8565b91507f6e616d65206d757374206e6f7420626520656d707479000000000000000000006000830152602082019050919050565b61183c81611bf4565b82525050565b600061184d82611501565b9150819050919050565b6000611862826117b3565b9150819050919050565b60006020820190508181036000830152611885816113db565b9050919050565b600060208201905081810360008301526118a58161141b565b9050919050565b600060208201905081810360008301526118c58161145b565b9050919050565b600060208201905081810360008301526118e58161149b565b9050919050565b6000602082019050818103600083015261190581611541565b9050919050565b6000602082019050818103600083015261192581611581565b9050919050565b60006020820190508181036000830152611945816115c1565b9050919050565b6000602082019050818103600083015261196581611601565b9050919050565b6000602082019050818103600083015261198581611667565b9050919050565b600060208201905081810360008301526119a5816116a7565b9050919050565b600060208201905081810360008301526119c5816116e7565b9050919050565b600060208201905081810360008301526119e58161174d565b9050919050565b60006020820190508181036000830152611a05816117f3565b9050919050565b6000602082019050611a216000830184611833565b92915050565b6000604082019050611a3c6000830185611833565b8181036020830152611a4e81846113a2565b90509392505050565b600060e082019050611a6c600083018a611833565b8181036020830152611a7e81896113a2565b90508181036040830152611a9281886113a2565b90508181036060830152611aa681876113a2565b90508181036080830152611aba81866113a2565b905081810360a0830152611ace81856113a2565b905081810360c0830152611ae281846113a2565b905098975050505050505050565b600060e082019050611b05600083018a611833565b8181036020830152611b1781896113a2565b90508181036040830152611b2b81886113a2565b90508181036060830152611b3f81876113a2565b9050611b4e6080830186611833565b611b5b60a0830185611833565b611b6860c0830184611833565b98975050505050505050565b6000604051905081810181811067ffffffffffffffff82111715611b9757600080fd5b8060405250919050565b600067ffffffffffffffff821115611bb857600080fd5b601f19601f8301169050602081019050919050565b600081519050919050565b600082825260208201905092915050565b600081905092915050565b6000819050919050565b82818337600083830152505050565b60005b83811015611c2b578082015181840152602081019050611c10565b83811115611c3a576000848401525b50505050565b6000601f19601f8301169050919050565b611c5a81611bf4565b8114611c6557600080fd5b5056fea265627a7a723058206e8040b0c996c0f295884010dd63ff3f263e1e80bf4aca2215b7875e680cc8566c6578706572696d656e74616cf50037",
  "source": "pragma solidity 0.5.8;\npragma experimental ABIEncoderV2;\n\ncontract Notary {\n\n    event createdEvent (\n        uint indexed _code\n    );\n\n    struct Person {\n        uint code;\n        string name;\n        string city;\n        string gender;\n        uint day;\n        uint month;\n        uint year;\n    }\n\n    struct Relatives {\n        uint code;\n        string father;\n        string mother;\n        string paternalGrandfather;\n        string paternalGrandmother;\n        string maternalGrandfather;\n        string maternalGrandmother;\n    }\n\n    struct Extra {\n        uint code;\n        string witness;\n    }\n    // Read/write people\n    mapping(uint => Person) public people;\n    mapping(uint => Relatives) public relativeList;\n    mapping(uint => Extra) public extras;\n    mapping(uint => uint) public codePosition;\n    uint public certificateCount;\n\n    constructor() public {}\n\n    function createPerson ( uint _code,\n                            string memory _name,\n                            string memory _city,\n                            string memory _gender,\n                            uint _day,\n                            uint _month,\n                            uint _year) public {\n        certificateCount ++;\n        Person memory person;\n        person.code = _code;\n        person.name = _name;\n        person.city = _city;\n        person.gender = _gender;\n        person.day = _day;\n        person.month = _month;\n        person.year = _year;\n        \n        validatePerson(person);\n\n        people[certificateCount] = person;\n        codePosition[_code] = certificateCount;\n\n        emit createdEvent(_code);\n    }\n\n    function createRelatives ( uint _code,\n                                string memory _father,\n                                string memory _mother,\n                                string memory _paternalGrandfather,\n                                string memory _paternalGrandmother,\n                                string memory _maternalGrandfather,\n                                string memory _maternalGrandmother) public {\n        Relatives memory relatives;\n        relatives.code = _code;\n        relatives.father = _father;\n        relatives.mother = _mother;\n        relatives.paternalGrandfather = _paternalGrandfather;\n        relatives.paternalGrandmother = _paternalGrandmother;\n        relatives.maternalGrandfather = _maternalGrandfather;\n        relatives.maternalGrandmother = _maternalGrandmother;\n\n        validateRelatives(relatives);\n\n        relativeList[certificateCount] = relatives;\n\n        emit createdEvent(_code);\n    }\n\n    function getPersonKey(uint _code) public view returns(uint) {\n        uint position = codePosition[_code];\n        return position;\n    }\n\n    function validatePerson(Person memory person) private {\n        require(people[person.code].code == 0, 'code must be unique');\n        require(bytes(person.name).length > 0, 'name must not be empty');\n        require(bytes(person.city).length > 0, 'city must not be empty');\n        require(person.day > 0 && person.day < 31, 'wrong day');\n        require(person.month > 0 && person.month < 13, 'wrong month');\n        require(person.year > 0, 'year must not be empty');\n        bytes memory gender = bytes(person.gender);\n        require(keccak256(gender) == keccak256('M') || keccak256(gender) == keccak256('F'), 'gender must not be M or F');\n    }\n\n    function validateRelatives(Relatives memory relative) private {\n        require(relativeList[relative.code].code == 0, 'code must be unique');\n        require(bytes(relative.father).length > 0, 'father must not be empty');\n        require(bytes(relative.mother).length > 0, 'mother must not be empty');\n        require(bytes(relative.paternalGrandfather).length > 0, 'paternalGrandfather must not be empty');\n        require(bytes(relative.paternalGrandmother).length > 0, 'paternalGrandmother must not be empty');\n        require(bytes(relative.maternalGrandfather).length > 0, 'maternalGrandfather must not be empty');\n        require(bytes(relative.maternalGrandmother).length > 0, 'maternalGrandmother must not be empty');\n        // require(bytes(person.witness).length > 0, 'witness must not be empty');\n    }\n}",
  "sourcePath": "/Users/douglasmandarino/Documents/PUC/Blockchain/BirthCertificate/contracts/Notary.sol",
  "compiler": {
    "name": "solc",
    "version": "0.5.8+commit.23d335f2.Emscripten.clang"
  },
  "schemaVersion": "3.0.16",
  "updatedAt": "2019-10-25T06:39:12.381Z",
  "devdoc": {
    "methods": {}
  },
  "userdoc": {
    "methods": {}
  }
}