{
  "contractName": "Notary",
  "abi": [
    {
      "constant": true,
      "inputs": [],
      "name": "certificate",
      "outputs": [
        {
          "name": "id",
          "type": "uint256"
        },
        {
          "name": "registration",
          "type": "uint256"
        },
        {
          "name": "name",
          "type": "string"
        },
        {
          "name": "city",
          "type": "string"
        },
        {
          "name": "gender",
          "type": "string"
        },
        {
          "name": "father",
          "type": "string"
        },
        {
          "name": "mother",
          "type": "string"
        },
        {
          "name": "paternalGrandfather",
          "type": "string"
        },
        {
          "name": "paternalGrandmother",
          "type": "string"
        },
        {
          "name": "maternalGrandfather",
          "type": "string"
        },
        {
          "name": "maternalGrandmother",
          "type": "string"
        },
        {
          "name": "witness",
          "type": "string"
        }
      ],
      "payable": false,
      "stateMutability": "view",
      "type": "function"
    },
    {
      "constant": true,
      "inputs": [],
      "name": "certificateCount",
      "outputs": [
        {
          "name": "",
          "type": "uint256"
        }
      ],
      "payable": false,
      "stateMutability": "view",
      "type": "function"
    },
    {
      "constant": true,
      "inputs": [
        {
          "name": "",
          "type": "uint256"
        }
      ],
      "name": "certificates",
      "outputs": [
        {
          "name": "id",
          "type": "uint256"
        },
        {
          "name": "registration",
          "type": "uint256"
        },
        {
          "name": "name",
          "type": "string"
        },
        {
          "name": "city",
          "type": "string"
        },
        {
          "name": "gender",
          "type": "string"
        },
        {
          "name": "father",
          "type": "string"
        },
        {
          "name": "mother",
          "type": "string"
        },
        {
          "name": "paternalGrandfather",
          "type": "string"
        },
        {
          "name": "paternalGrandmother",
          "type": "string"
        },
        {
          "name": "maternalGrandfather",
          "type": "string"
        },
        {
          "name": "maternalGrandmother",
          "type": "string"
        },
        {
          "name": "witness",
          "type": "string"
        }
      ],
      "payable": false,
      "stateMutability": "view",
      "type": "function"
    },
    {
      "inputs": [],
      "payable": false,
      "stateMutability": "nonpayable",
      "type": "constructor"
    },
    {
      "constant": false,
      "inputs": [
        {
          "name": "_registration",
          "type": "uint256"
        },
        {
          "name": "_name",
          "type": "string"
        },
        {
          "name": "_city",
          "type": "string"
        },
        {
          "name": "_gender",
          "type": "string"
        },
        {
          "name": "_father",
          "type": "string"
        },
        {
          "name": "_mother",
          "type": "string"
        },
        {
          "name": "_paternalGrandfather",
          "type": "string"
        },
        {
          "name": "_paternalGrandmother",
          "type": "string"
        },
        {
          "name": "_maternalGrandfather",
          "type": "string"
        },
        {
          "name": "_maternalGrandmother",
          "type": "string"
        },
        {
          "name": "_witness",
          "type": "string"
        }
      ],
      "name": "createCertificate",
      "outputs": [],
      "payable": false,
      "stateMutability": "nonpayable",
      "type": "function"
    },
    {
      "constant": false,
      "inputs": [
        {
          "name": "_candidateId",
          "type": "uint256"
        }
      ],
      "name": "vote",
      "outputs": [],
      "payable": false,
      "stateMutability": "nonpayable",
      "type": "function"
    }
  ],
  "bytecode": "0x608060405234801561001057600080fd5b5061150f806100206000396000f3fe608060405234801561001057600080fd5b50600436106100575760003560e01c80630121b93f1461005c5780632dbf7b981461007857806352d7b89c146100a157806358e630e3146100bf578063663b3e22146100db575b600080fd5b61007660048036036100719190810190611080565b610116565b005b610080610119565b6040516100989c9b9a999897969594939291906112ec565b60405180910390f35b6100a9610757565b6040516100b691906112d1565b60405180910390f35b6100d960048036036100d491908101906110a9565b61075d565b005b6100f560048036036100f09190810190611080565b610922565b60405161010d9c9b9a999897969594939291906112ec565b60405180910390f35b50565b6000806000015490806001015490806002018054600181600116156101000203166002900480601f0160208091040260200160405190810160405280929190818152602001828054600181600116156101000203166002900480156101bf5780601f10610194576101008083540402835291602001916101bf565b820191906000526020600020905b8154815290600101906020018083116101a257829003601f168201915b505050505090806003018054600181600116156101000203166002900480601f01602080910402602001604051908101604052809291908181526020018280546001816001161561010002031660029004801561025d5780601f106102325761010080835404028352916020019161025d565b820191906000526020600020905b81548152906001019060200180831161024057829003601f168201915b505050505090806004018054600181600116156101000203166002900480601f0160208091040260200160405190810160405280929190818152602001828054600181600116156101000203166002900480156102fb5780601f106102d0576101008083540402835291602001916102fb565b820191906000526020600020905b8154815290600101906020018083116102de57829003601f168201915b505050505090806005018054600181600116156101000203166002900480601f0160208091040260200160405190810160405280929190818152602001828054600181600116156101000203166002900480156103995780601f1061036e57610100808354040283529160200191610399565b820191906000526020600020905b81548152906001019060200180831161037c57829003601f168201915b505050505090806006018054600181600116156101000203166002900480601f0160208091040260200160405190810160405280929190818152602001828054600181600116156101000203166002900480156104375780601f1061040c57610100808354040283529160200191610437565b820191906000526020600020905b81548152906001019060200180831161041a57829003601f168201915b505050505090806007018054600181600116156101000203166002900480601f0160208091040260200160405190810160405280929190818152602001828054600181600116156101000203166002900480156104d55780601f106104aa576101008083540402835291602001916104d5565b820191906000526020600020905b8154815290600101906020018083116104b857829003601f168201915b505050505090806008018054600181600116156101000203166002900480601f0160208091040260200160405190810160405280929190818152602001828054600181600116156101000203166002900480156105735780601f1061054857610100808354040283529160200191610573565b820191906000526020600020905b81548152906001019060200180831161055657829003601f168201915b505050505090806009018054600181600116156101000203166002900480601f0160208091040260200160405190810160405280929190818152602001828054600181600116156101000203166002900480156106115780601f106105e657610100808354040283529160200191610611565b820191906000526020600020905b8154815290600101906020018083116105f457829003601f168201915b50505050509080600a018054600181600116156101000203166002900480601f0160208091040260200160405190810160405280929190818152602001828054600181600116156101000203166002900480156106af5780601f10610684576101008083540402835291602001916106af565b820191906000526020600020905b81548152906001019060200180831161069257829003601f168201915b50505050509080600b018054600181600116156101000203166002900480601f01602080910402602001604051908101604052809291908181526020018280546001816001161561010002031660029004801561074d5780601f106107225761010080835404028352916020019161074d565b820191906000526020600020905b81548152906001019060200180831161073057829003601f168201915b505050505090508c565b600d5481565b600d60008154809291906001019190505550604051806101800160405280600d5481526020018c81526020018b81526020018a815260200189815260200188815260200187815260200186815260200185815260200184815260200183815260200182815250600c6000600d54815260200190815260200160002060008201518160000155602082015181600101556040820151816002019080519060200190610808929190610f72565b506060820151816003019080519060200190610825929190610f72565b506080820151816004019080519060200190610842929190610f72565b5060a082015181600501908051906020019061085f929190610f72565b5060c082015181600601908051906020019061087c929190610f72565b5060e0820151816007019080519060200190610899929190610f72565b506101008201518160080190805190602001906108b7929190610f72565b506101208201518160090190805190602001906108d5929190610f72565b5061014082015181600a0190805190602001906108f3929190610f72565b5061016082015181600b019080519060200190610911929190610f72565b509050505050505050505050505050565b600c602052806000526040600020600091509050806000015490806001015490806002018054600181600116156101000203166002900480601f0160208091040260200160405190810160405280929190818152602001828054600181600116156101000203166002900480156109da5780601f106109af576101008083540402835291602001916109da565b820191906000526020600020905b8154815290600101906020018083116109bd57829003601f168201915b505050505090806003018054600181600116156101000203166002900480601f016020809104026020016040519081016040528092919081815260200182805460018160011615610100020316600290048015610a785780601f10610a4d57610100808354040283529160200191610a78565b820191906000526020600020905b815481529060010190602001808311610a5b57829003601f168201915b505050505090806004018054600181600116156101000203166002900480601f016020809104026020016040519081016040528092919081815260200182805460018160011615610100020316600290048015610b165780601f10610aeb57610100808354040283529160200191610b16565b820191906000526020600020905b815481529060010190602001808311610af957829003601f168201915b505050505090806005018054600181600116156101000203166002900480601f016020809104026020016040519081016040528092919081815260200182805460018160011615610100020316600290048015610bb45780601f10610b8957610100808354040283529160200191610bb4565b820191906000526020600020905b815481529060010190602001808311610b9757829003601f168201915b505050505090806006018054600181600116156101000203166002900480601f016020809104026020016040519081016040528092919081815260200182805460018160011615610100020316600290048015610c525780601f10610c2757610100808354040283529160200191610c52565b820191906000526020600020905b815481529060010190602001808311610c3557829003601f168201915b505050505090806007018054600181600116156101000203166002900480601f016020809104026020016040519081016040528092919081815260200182805460018160011615610100020316600290048015610cf05780601f10610cc557610100808354040283529160200191610cf0565b820191906000526020600020905b815481529060010190602001808311610cd357829003601f168201915b505050505090806008018054600181600116156101000203166002900480601f016020809104026020016040519081016040528092919081815260200182805460018160011615610100020316600290048015610d8e5780601f10610d6357610100808354040283529160200191610d8e565b820191906000526020600020905b815481529060010190602001808311610d7157829003601f168201915b505050505090806009018054600181600116156101000203166002900480601f016020809104026020016040519081016040528092919081815260200182805460018160011615610100020316600290048015610e2c5780601f10610e0157610100808354040283529160200191610e2c565b820191906000526020600020905b815481529060010190602001808311610e0f57829003601f168201915b50505050509080600a018054600181600116156101000203166002900480601f016020809104026020016040519081016040528092919081815260200182805460018160011615610100020316600290048015610eca5780601f10610e9f57610100808354040283529160200191610eca565b820191906000526020600020905b815481529060010190602001808311610ead57829003601f168201915b50505050509080600b018054600181600116156101000203166002900480601f016020809104026020016040519081016040528092919081815260200182805460018160011615610100020316600290048015610f685780601f10610f3d57610100808354040283529160200191610f68565b820191906000526020600020905b815481529060010190602001808311610f4b57829003601f168201915b505050505090508c565b828054600181600116156101000203166002900490600052602060002090601f016020900481019282601f10610fb357805160ff1916838001178555610fe1565b82800160010185558215610fe1579182015b82811115610fe0578251825591602001919060010190610fc5565b5b509050610fee9190610ff2565b5090565b61101491905b80821115611010576000816000905550600101610ff8565b5090565b90565b600082601f83011261102857600080fd5b813561103b61103682611419565b6113ec565b9150808252602083016020830185838301111561105757600080fd5b61106283828461146b565b50505092915050565b60008135905061107a816114be565b92915050565b60006020828403121561109257600080fd5b60006110a08482850161106b565b91505092915050565b60008060008060008060008060008060006101608c8e0312156110cb57600080fd5b60006110d98e828f0161106b565b9b505060208c013567ffffffffffffffff8111156110f657600080fd5b6111028e828f01611017565b9a505060408c013567ffffffffffffffff81111561111f57600080fd5b61112b8e828f01611017565b99505060608c013567ffffffffffffffff81111561114857600080fd5b6111548e828f01611017565b98505060808c013567ffffffffffffffff81111561117157600080fd5b61117d8e828f01611017565b97505060a08c013567ffffffffffffffff81111561119a57600080fd5b6111a68e828f01611017565b96505060c08c013567ffffffffffffffff8111156111c357600080fd5b6111cf8e828f01611017565b95505060e08c013567ffffffffffffffff8111156111ec57600080fd5b6111f88e828f01611017565b9450506101008c013567ffffffffffffffff81111561121657600080fd5b6112228e828f01611017565b9350506101208c013567ffffffffffffffff81111561124057600080fd5b61124c8e828f01611017565b9250506101408c013567ffffffffffffffff81111561126a57600080fd5b6112768e828f01611017565b9150509295989b509295989b9093969950565b600061129482611445565b61129e8185611450565b93506112ae81856020860161147a565b6112b7816114ad565b840191505092915050565b6112cb81611461565b82525050565b60006020820190506112e660008301846112c2565b92915050565b600061018082019050611302600083018f6112c2565b61130f602083018e6112c2565b8181036040830152611321818d611289565b90508181036060830152611335818c611289565b90508181036080830152611349818b611289565b905081810360a083015261135d818a611289565b905081810360c08301526113718189611289565b905081810360e08301526113858188611289565b905081810361010083015261139a8187611289565b90508181036101208301526113af8186611289565b90508181036101408301526113c48185611289565b90508181036101608301526113d98184611289565b90509d9c50505050505050505050505050565b6000604051905081810181811067ffffffffffffffff8211171561140f57600080fd5b8060405250919050565b600067ffffffffffffffff82111561143057600080fd5b601f19601f8301169050602081019050919050565b600081519050919050565b600082825260208201905092915050565b6000819050919050565b82818337600083830152505050565b60005b8381101561149857808201518184015260208101905061147d565b838111156114a7576000848401525b50505050565b6000601f19601f8301169050919050565b6114c781611461565b81146114d257600080fd5b5056fea265627a7a723058203ffc64cff9da6725bfc0573f7129618908d2c2060ed9d3305e3326c0fc73a6f26c6578706572696d656e74616cf50037",
  "source": "pragma solidity 0.5.8;\npragma experimental ABIEncoderV2;\nimport './BirthCertificate.sol';\n\ncontract Notary is BirthCertificate {\n\n    // Read/write Certificates\n    mapping(uint => BirthCertificate.Certificate) public certificates;\n    uint public certificateCount;\n\n    constructor() public {}\n\n    function createCertificate ( uint _registration,\n                                string memory _name,\n                                string memory _city,\n                                string memory _gender,\n                                string memory _father,\n                                string memory _mother,\n                                string memory _paternalGrandfather,\n                                string memory _paternalGrandmother,\n                                string memory _maternalGrandfather,\n                                string memory _maternalGrandmother,\n                                string memory _witness ) public {\n\n        certificateCount ++;\n        certificates[certificateCount] = BirthCertificate.Certificate(certificateCount,\n                                                    _registration,\n                                                    _name,\n                                                    _city,\n                                                    _gender,\n                                                    _father,\n                                                    _mother,\n                                                    _paternalGrandfather,\n                                                    _paternalGrandmother,\n                                                    _maternalGrandfather,\n                                                    _maternalGrandmother,\n                                                    _witness);\n    }\n\n    function vote (uint _candidateId) public {\n        // // require that they haven't voted before\n        // require(!voters[msg.sender]);\n\n        // // require a valid candidate\n        // require(_candidateId > 0 && _candidateId <= certificateCount);\n\n        // // record that voter has voted\n        // voters[msg.sender] = true;\n\n        // // update candidate vote Count\n        // candidates[_candidateId].voteCount ++;\n    }\n}",
  "sourcePath": "/Users/douglasmandarino/Documents/PUC/Blockchain/BirthCertificate/contracts/Notary.sol",
  "compiler": {
    "name": "solc",
    "version": "0.5.8+commit.23d335f2.Emscripten.clang"
  },
  "schemaVersion": "3.0.16",
  "updatedAt": "2019-10-19T18:11:31.511Z",
  "devdoc": {
    "methods": {}
  },
  "userdoc": {
    "methods": {}
  }
}