{
  "contractName": "Notary",
  "abi": [
    {
      "constant": true,
      "inputs": [],
      "name": "certificateCount",
      "outputs": [
        {
          "name": "",
          "type": "uint256"
        }
      ],
      "payable": false,
      "stateMutability": "view",
      "type": "function"
    },
    {
      "constant": true,
      "inputs": [
        {
          "name": "",
          "type": "uint256"
        }
      ],
      "name": "certificates",
      "outputs": [
        {
          "name": "id",
          "type": "uint256"
        },
        {
          "name": "registration",
          "type": "uint256"
        },
        {
          "name": "name",
          "type": "string"
        },
        {
          "name": "city",
          "type": "string"
        },
        {
          "name": "gender",
          "type": "string"
        },
        {
          "name": "father",
          "type": "string"
        },
        {
          "name": "mother",
          "type": "string"
        },
        {
          "name": "paternalGrandfather",
          "type": "string"
        },
        {
          "name": "paternalGrandmother",
          "type": "string"
        },
        {
          "name": "maternalGrandfather",
          "type": "string"
        },
        {
          "name": "maternalGrandmother",
          "type": "string"
        },
        {
          "name": "witness",
          "type": "string"
        }
      ],
      "payable": false,
      "stateMutability": "view",
      "type": "function"
    },
    {
      "inputs": [],
      "payable": false,
      "stateMutability": "nonpayable",
      "type": "constructor"
    },
    {
      "constant": false,
      "inputs": [
        {
          "name": "_candidateId",
          "type": "uint256"
        }
      ],
      "name": "vote",
      "outputs": [],
      "payable": false,
      "stateMutability": "nonpayable",
      "type": "function"
    }
  ],
  "bytecode": "0x608060405234801561001057600080fd5b50610970806100206000396000f3fe608060405234801561001057600080fd5b50600436106100415760003560e01c80630121b93f1461004657806352d7b89c14610062578063663b3e2214610080575b600080fd5b610060600480360361005b9190810190610729565b6100bb565b005b61006a6100be565b604051610077919061079a565b60405180910390f35b61009a60048036036100959190810190610729565b6100c4565b6040516100b29c9b9a999897969594939291906107b5565b60405180910390f35b50565b60015481565b6000602052806000526040600020600091509050806000015490806001015490806002018054600181600116156101000203166002900480601f01602080910402602001604051908101604052809291908181526020018280546001816001161561010002031660029004801561017c5780601f106101515761010080835404028352916020019161017c565b820191906000526020600020905b81548152906001019060200180831161015f57829003601f168201915b505050505090806003018054600181600116156101000203166002900480601f01602080910402602001604051908101604052809291908181526020018280546001816001161561010002031660029004801561021a5780601f106101ef5761010080835404028352916020019161021a565b820191906000526020600020905b8154815290600101906020018083116101fd57829003601f168201915b505050505090806004018054600181600116156101000203166002900480601f0160208091040260200160405190810160405280929190818152602001828054600181600116156101000203166002900480156102b85780601f1061028d576101008083540402835291602001916102b8565b820191906000526020600020905b81548152906001019060200180831161029b57829003601f168201915b505050505090806005018054600181600116156101000203166002900480601f0160208091040260200160405190810160405280929190818152602001828054600181600116156101000203166002900480156103565780601f1061032b57610100808354040283529160200191610356565b820191906000526020600020905b81548152906001019060200180831161033957829003601f168201915b505050505090806006018054600181600116156101000203166002900480601f0160208091040260200160405190810160405280929190818152602001828054600181600116156101000203166002900480156103f45780601f106103c9576101008083540402835291602001916103f4565b820191906000526020600020905b8154815290600101906020018083116103d757829003601f168201915b505050505090806007018054600181600116156101000203166002900480601f0160208091040260200160405190810160405280929190818152602001828054600181600116156101000203166002900480156104925780601f1061046757610100808354040283529160200191610492565b820191906000526020600020905b81548152906001019060200180831161047557829003601f168201915b505050505090806008018054600181600116156101000203166002900480601f0160208091040260200160405190810160405280929190818152602001828054600181600116156101000203166002900480156105305780601f1061050557610100808354040283529160200191610530565b820191906000526020600020905b81548152906001019060200180831161051357829003601f168201915b505050505090806009018054600181600116156101000203166002900480601f0160208091040260200160405190810160405280929190818152602001828054600181600116156101000203166002900480156105ce5780601f106105a3576101008083540402835291602001916105ce565b820191906000526020600020905b8154815290600101906020018083116105b157829003601f168201915b50505050509080600a018054600181600116156101000203166002900480601f01602080910402602001604051908101604052809291908181526020018280546001816001161561010002031660029004801561066c5780601f106106415761010080835404028352916020019161066c565b820191906000526020600020905b81548152906001019060200180831161064f57829003601f168201915b50505050509080600b018054600181600116156101000203166002900480601f01602080910402602001604051908101604052809291908181526020018280546001816001161561010002031660029004801561070a5780601f106106df5761010080835404028352916020019161070a565b820191906000526020600020905b8154815290600101906020018083116106ed57829003601f168201915b505050505090508c565b6000813590506107238161091f565b92915050565b60006020828403121561073b57600080fd5b600061074984828501610714565b91505092915050565b600061075d826108b5565b61076781856108c0565b93506107778185602086016108db565b6107808161090e565b840191505092915050565b610794816108d1565b82525050565b60006020820190506107af600083018461078b565b92915050565b6000610180820190506107cb600083018f61078b565b6107d8602083018e61078b565b81810360408301526107ea818d610752565b905081810360608301526107fe818c610752565b90508181036080830152610812818b610752565b905081810360a0830152610826818a610752565b905081810360c083015261083a8189610752565b905081810360e083015261084e8188610752565b90508181036101008301526108638187610752565b90508181036101208301526108788186610752565b905081810361014083015261088d8185610752565b90508181036101608301526108a28184610752565b90509d9c50505050505050505050505050565b600081519050919050565b600082825260208201905092915050565b6000819050919050565b60005b838110156108f95780820151818401526020810190506108de565b83811115610908576000848401525b50505050565b6000601f19601f8301169050919050565b610928816108d1565b811461093357600080fd5b5056fea265627a7a723058209f44c956c4d6a39bfa98425101a1c1a2ceb2f8fb61ba8579e7203b33552277466c6578706572696d656e74616cf50037",
  "source": "pragma solidity 0.5.8;\npragma experimental ABIEncoderV2;\nimport './BirthCertificate.sol';\n// import { certificate} from './BirthCertificate.sol';\n\ncontract Notary {\n\n     // Model a Certificate\n    struct Certificate {\n        uint id;\n        uint registration;\n        Child child;\n        GrandParents grandParents;\n    }\n\n    struct Child {\n        string name;\n        string city;\n        string gender;\n        string father;\n        string mother;\n    }\n\n    struct GrandParents {\n        string paternalGrandfather;\n        string paternalGrandmother;\n        string maternalGrandfather;\n        string maternalGrandmother;\n        string witness;\n    }\n    \n    // Read/write Candidates\n    mapping(uint => BirthCertificate.Certificate) public certificates;\n    uint public certificateCount;\n    \n    constructor() public {\n        \n    }\n\n    function createCertificate ( uint _registration,\n                                string memory _name,\n                                string memory _city,\n                                string memory _gender,\n                                string memory _father,\n                                string memory _mother,\n                                string memory _paternalGrandfather,\n                                string memory _paternalGrandmother,\n                                string memory _maternalGrandfather,\n                                string memory _maternalGrandmother,\n                                string memory _witness ) private {\n\n        certificateCount ++;\n        certificates[certificateCount] = BirthCertificate.Certificate(certificateCount,\n                                                    _registration,\n                                                    _name,\n                                                    _city,\n                                                    _gender,\n                                                    _father,\n                                                    _mother,\n                                                    _paternalGrandfather,\n                                                    _paternalGrandmother,\n                                                    _maternalGrandfather,\n                                                    _maternalGrandmother,\n                                                    _witness);\n    }\n\n    function vote (uint _candidateId) public {\n        // // require that they haven't voted before\n        // require(!voters[msg.sender]);\n\n        // // require a valid candidate\n        // require(_candidateId > 0 && _candidateId <= certificateCount);\n\n        // // record that voter has voted\n        // voters[msg.sender] = true;\n\n        // // update candidate vote Count\n        // candidates[_candidateId].voteCount ++;\n    }\n}",
  "sourcePath": "/Users/douglasmandarino/Documents/PUC/Blockchain/BirthCertificate/contracts/Notary.sol",
  "compiler": {
    "name": "solc",
    "version": "0.5.8+commit.23d335f2.Emscripten.clang"
  },
  "schemaVersion": "3.0.16",
  "updatedAt": "2019-10-19T15:36:08.751Z",
  "devdoc": {
    "methods": {}
  },
  "userdoc": {
    "methods": {}
  }
}