{
  "contractName": "Notary",
  "abi": [
    {
      "constant": true,
      "inputs": [],
      "name": "certificateCount",
      "outputs": [
        {
          "name": "",
          "type": "uint256"
        }
      ],
      "payable": false,
      "stateMutability": "view",
      "type": "function"
    },
    {
      "constant": true,
      "inputs": [
        {
          "name": "",
          "type": "uint256"
        }
      ],
      "name": "certificates",
      "outputs": [
        {
          "name": "code",
          "type": "uint256"
        },
        {
          "name": "name",
          "type": "string"
        },
        {
          "name": "city",
          "type": "string"
        },
        {
          "name": "gender",
          "type": "string"
        },
        {
          "name": "father",
          "type": "string"
        },
        {
          "name": "mother",
          "type": "string"
        },
        {
          "name": "paternalGrandfather",
          "type": "string"
        },
        {
          "name": "paternalGrandmother",
          "type": "string"
        },
        {
          "name": "maternalGrandfather",
          "type": "string"
        },
        {
          "name": "maternalGrandmother",
          "type": "string"
        },
        {
          "name": "witness",
          "type": "string"
        }
      ],
      "payable": false,
      "stateMutability": "view",
      "type": "function"
    },
    {
      "inputs": [],
      "payable": false,
      "stateMutability": "nonpayable",
      "type": "constructor"
    },
    {
      "anonymous": false,
      "inputs": [
        {
          "indexed": true,
          "name": "_code",
          "type": "uint256"
        }
      ],
      "name": "createdEvent",
      "type": "event"
    },
    {
      "constant": false,
      "inputs": [
        {
          "name": "_code",
          "type": "uint256"
        },
        {
          "name": "_name",
          "type": "string"
        },
        {
          "name": "_city",
          "type": "string"
        },
        {
          "name": "_gender",
          "type": "string"
        },
        {
          "name": "_father",
          "type": "string"
        },
        {
          "name": "_mother",
          "type": "string"
        },
        {
          "name": "_paternalGrandfather",
          "type": "string"
        },
        {
          "name": "_paternalGrandmother",
          "type": "string"
        },
        {
          "name": "_maternalGrandfather",
          "type": "string"
        },
        {
          "name": "_maternalGrandmother",
          "type": "string"
        },
        {
          "name": "_witness",
          "type": "string"
        }
      ],
      "name": "createCertificate",
      "outputs": [],
      "payable": false,
      "stateMutability": "nonpayable",
      "type": "function"
    },
    {
      "constant": true,
      "inputs": [],
      "name": "get",
      "outputs": [
        {
          "name": "",
          "type": "string"
        }
      ],
      "payable": false,
      "stateMutability": "view",
      "type": "function"
    },
    {
      "constant": true,
      "inputs": [
        {
          "name": "_code",
          "type": "uint256"
        }
      ],
      "name": "getByID",
      "outputs": [
        {
          "name": "code",
          "type": "uint256"
        },
        {
          "name": "name",
          "type": "string"
        },
        {
          "name": "city",
          "type": "string"
        },
        {
          "name": "gender",
          "type": "string"
        },
        {
          "name": "father",
          "type": "string"
        },
        {
          "name": "mother",
          "type": "string"
        },
        {
          "name": "paternalGrandfather",
          "type": "string"
        },
        {
          "name": "paternalGrandmother",
          "type": "string"
        },
        {
          "name": "maternalGrandfather",
          "type": "string"
        },
        {
          "name": "maternalGrandmother",
          "type": "string"
        },
        {
          "name": "witness",
          "type": "string"
        }
      ],
      "payable": false,
      "stateMutability": "view",
      "type": "function"
    }
  ],
  "bytecode": "0x608060405234801561001057600080fd5b50612811806100206000396000f3fe608060405234801561001057600080fd5b50600436106100575760003560e01c806352d7b89c1461005c57806358e630e31461007a578063663b3e22146100965780636d4ce63c146100d057806374fb0aa7146100ee575b600080fd5b610064610128565b60405161007191906124db565b60405180910390f35b610094600480360361008f9190810190611c96565b61012e565b005b6100b060048036036100ab9190810190611c6d565b610338565b6040516100c79b9a999897969594939291906125e7565b60405180910390f35b6100d8610982565b6040516100e59190612339565b60405180910390f35b61010860048036036101039190810190611c6d565b611016565b60405161011f9b9a999897969594939291906124f6565b60405180910390f35b60015481565b600160008154809291906001019190505550610148611b05565b8b8160000181815250508a8160200181905250898160400181905250888160600181905250878160800181905250868160a00181905250858160c00181905250848160e001819052508381610100018190525082816101200181905250818161014001819052506101b88161172b565b806000808e81526020019081526020016000206000820151816000015560208201518160010190805190602001906101f1929190611b5f565b50604082015181600201908051906020019061020e929190611b5f565b50606082015181600301908051906020019061022b929190611b5f565b506080820151816004019080519060200190610248929190611b5f565b5060a0820151816005019080519060200190610265929190611b5f565b5060c0820151816006019080519060200190610282929190611b5f565b5060e082015181600701908051906020019061029f929190611b5f565b506101008201518160080190805190602001906102bd929190611b5f565b506101208201518160090190805190602001906102db929190611b5f565b5061014082015181600a0190805190602001906102f9929190611b5f565b509050508b7fa854a749979502a204992acac225fdcbf427947356505ac9c7126f6244f1434460405160405180910390a2505050505050505050505050565b6000602052806000526040600020600091509050806000015490806001018054600181600116156101000203166002900480601f0160208091040260200160405190810160405280929190818152602001828054600181600116156101000203166002900480156103ea5780601f106103bf576101008083540402835291602001916103ea565b820191906000526020600020905b8154815290600101906020018083116103cd57829003601f168201915b505050505090806002018054600181600116156101000203166002900480601f0160208091040260200160405190810160405280929190818152602001828054600181600116156101000203166002900480156104885780601f1061045d57610100808354040283529160200191610488565b820191906000526020600020905b81548152906001019060200180831161046b57829003601f168201915b505050505090806003018054600181600116156101000203166002900480601f0160208091040260200160405190810160405280929190818152602001828054600181600116156101000203166002900480156105265780601f106104fb57610100808354040283529160200191610526565b820191906000526020600020905b81548152906001019060200180831161050957829003601f168201915b505050505090806004018054600181600116156101000203166002900480601f0160208091040260200160405190810160405280929190818152602001828054600181600116156101000203166002900480156105c45780601f10610599576101008083540402835291602001916105c4565b820191906000526020600020905b8154815290600101906020018083116105a757829003601f168201915b505050505090806005018054600181600116156101000203166002900480601f0160208091040260200160405190810160405280929190818152602001828054600181600116156101000203166002900480156106625780601f1061063757610100808354040283529160200191610662565b820191906000526020600020905b81548152906001019060200180831161064557829003601f168201915b505050505090806006018054600181600116156101000203166002900480601f0160208091040260200160405190810160405280929190818152602001828054600181600116156101000203166002900480156107005780601f106106d557610100808354040283529160200191610700565b820191906000526020600020905b8154815290600101906020018083116106e357829003601f168201915b505050505090806007018054600181600116156101000203166002900480601f01602080910402602001604051908101604052809291908181526020018280546001816001161561010002031660029004801561079e5780601f106107735761010080835404028352916020019161079e565b820191906000526020600020905b81548152906001019060200180831161078157829003601f168201915b505050505090806008018054600181600116156101000203166002900480601f01602080910402602001604051908101604052809291908181526020018280546001816001161561010002031660029004801561083c5780601f106108115761010080835404028352916020019161083c565b820191906000526020600020905b81548152906001019060200180831161081f57829003601f168201915b505050505090806009018054600181600116156101000203166002900480601f0160208091040260200160405190810160405280929190818152602001828054600181600116156101000203166002900480156108da5780601f106108af576101008083540402835291602001916108da565b820191906000526020600020905b8154815290600101906020018083116108bd57829003601f168201915b50505050509080600a018054600181600116156101000203166002900480601f0160208091040260200160405190810160405280929190818152602001828054600181600116156101000203166002900480156109785780601f1061094d57610100808354040283529160200191610978565b820191906000526020600020905b81548152906001019060200180831161095b57829003601f168201915b505050505090508b565b606061098c611b05565b600080600181526020019081526020016000206040518061016001604052908160008201548152602001600182018054600181600116156101000203166002900480601f016020809104026020016040519081016040528092919081815260200182805460018160011615610100020316600290048015610a4e5780601f10610a2357610100808354040283529160200191610a4e565b820191906000526020600020905b815481529060010190602001808311610a3157829003601f168201915b50505050508152602001600282018054600181600116156101000203166002900480601f016020809104026020016040519081016040528092919081815260200182805460018160011615610100020316600290048015610af05780601f10610ac557610100808354040283529160200191610af0565b820191906000526020600020905b815481529060010190602001808311610ad357829003601f168201915b50505050508152602001600382018054600181600116156101000203166002900480601f016020809104026020016040519081016040528092919081815260200182805460018160011615610100020316600290048015610b925780601f10610b6757610100808354040283529160200191610b92565b820191906000526020600020905b815481529060010190602001808311610b7557829003601f168201915b50505050508152602001600482018054600181600116156101000203166002900480601f016020809104026020016040519081016040528092919081815260200182805460018160011615610100020316600290048015610c345780601f10610c0957610100808354040283529160200191610c34565b820191906000526020600020905b815481529060010190602001808311610c1757829003601f168201915b50505050508152602001600582018054600181600116156101000203166002900480601f016020809104026020016040519081016040528092919081815260200182805460018160011615610100020316600290048015610cd65780601f10610cab57610100808354040283529160200191610cd6565b820191906000526020600020905b815481529060010190602001808311610cb957829003601f168201915b50505050508152602001600682018054600181600116156101000203166002900480601f016020809104026020016040519081016040528092919081815260200182805460018160011615610100020316600290048015610d785780601f10610d4d57610100808354040283529160200191610d78565b820191906000526020600020905b815481529060010190602001808311610d5b57829003601f168201915b50505050508152602001600782018054600181600116156101000203166002900480601f016020809104026020016040519081016040528092919081815260200182805460018160011615610100020316600290048015610e1a5780601f10610def57610100808354040283529160200191610e1a565b820191906000526020600020905b815481529060010190602001808311610dfd57829003601f168201915b50505050508152602001600882018054600181600116156101000203166002900480601f016020809104026020016040519081016040528092919081815260200182805460018160011615610100020316600290048015610ebc5780601f10610e9157610100808354040283529160200191610ebc565b820191906000526020600020905b815481529060010190602001808311610e9f57829003601f168201915b50505050508152602001600982018054600181600116156101000203166002900480601f016020809104026020016040519081016040528092919081815260200182805460018160011615610100020316600290048015610f5e5780601f10610f3357610100808354040283529160200191610f5e565b820191906000526020600020905b815481529060010190602001808311610f4157829003601f168201915b50505050508152602001600a82018054600181600116156101000203166002900480601f0160208091040260200160405190810160405280929190818152602001828054600181600116156101000203166002900480156110005780601f10610fd557610100808354040283529160200191611000565b820191906000526020600020905b815481529060010190602001808311610fe357829003601f168201915b5050505050815250509050806020015191505090565b600060608060608060608060608060608061102f611b05565b6000808e81526020019081526020016000206040518061016001604052908160008201548152602001600182018054600181600116156101000203166002900480601f0160208091040260200160405190810160405280929190818152602001828054600181600116156101000203166002900480156110f05780601f106110c5576101008083540402835291602001916110f0565b820191906000526020600020905b8154815290600101906020018083116110d357829003601f168201915b50505050508152602001600282018054600181600116156101000203166002900480601f0160208091040260200160405190810160405280929190818152602001828054600181600116156101000203166002900480156111925780601f1061116757610100808354040283529160200191611192565b820191906000526020600020905b81548152906001019060200180831161117557829003601f168201915b50505050508152602001600382018054600181600116156101000203166002900480601f0160208091040260200160405190810160405280929190818152602001828054600181600116156101000203166002900480156112345780601f1061120957610100808354040283529160200191611234565b820191906000526020600020905b81548152906001019060200180831161121757829003601f168201915b50505050508152602001600482018054600181600116156101000203166002900480601f0160208091040260200160405190810160405280929190818152602001828054600181600116156101000203166002900480156112d65780601f106112ab576101008083540402835291602001916112d6565b820191906000526020600020905b8154815290600101906020018083116112b957829003601f168201915b50505050508152602001600582018054600181600116156101000203166002900480601f0160208091040260200160405190810160405280929190818152602001828054600181600116156101000203166002900480156113785780601f1061134d57610100808354040283529160200191611378565b820191906000526020600020905b81548152906001019060200180831161135b57829003601f168201915b50505050508152602001600682018054600181600116156101000203166002900480601f01602080910402602001604051908101604052809291908181526020018280546001816001161561010002031660029004801561141a5780601f106113ef5761010080835404028352916020019161141a565b820191906000526020600020905b8154815290600101906020018083116113fd57829003601f168201915b50505050508152602001600782018054600181600116156101000203166002900480601f0160208091040260200160405190810160405280929190818152602001828054600181600116156101000203166002900480156114bc5780601f10611491576101008083540402835291602001916114bc565b820191906000526020600020905b81548152906001019060200180831161149f57829003601f168201915b50505050508152602001600882018054600181600116156101000203166002900480601f01602080910402602001604051908101604052809291908181526020018280546001816001161561010002031660029004801561155e5780601f106115335761010080835404028352916020019161155e565b820191906000526020600020905b81548152906001019060200180831161154157829003601f168201915b50505050508152602001600982018054600181600116156101000203166002900480601f0160208091040260200160405190810160405280929190818152602001828054600181600116156101000203166002900480156116005780601f106115d557610100808354040283529160200191611600565b820191906000526020600020905b8154815290600101906020018083116115e357829003601f168201915b50505050508152602001600a82018054600181600116156101000203166002900480601f0160208091040260200160405190810160405280929190818152602001828054600181600116156101000203166002900480156116a25780601f10611677576101008083540402835291602001916116a2565b820191906000526020600020905b81548152906001019060200180831161168557829003601f168201915b5050505050815250509050806000015181602001518260400151836060015184608001518560a001518660c001518760e001518861010001518961012001518a61014001518999508898508797508696508595508494508393508292508191508090509b509b509b509b509b509b509b509b509b509b509b505091939597999b90929496989a50565b600081600001511415611773576040517f08c379a000000000000000000000000000000000000000000000000000000000815260040161176a9061249b565b60405180910390fd5b6000816020015151116117bb576040517f08c379a00000000000000000000000000000000000000000000000000000000081526004016117b2906124bb565b60405180910390fd5b600081604001515111611803576040517f08c379a00000000000000000000000000000000000000000000000000000000081526004016117fa906123db565b60405180910390fd5b6060816060015190506040516118189061230f565b60405180910390208180519060200120148061184d575060405161183b90612324565b60405180910390208180519060200120145b61188c576040517f08c379a00000000000000000000000000000000000000000000000000000000081526004016118839061237b565b60405180910390fd5b6000826080015151116118d4576040517f08c379a00000000000000000000000000000000000000000000000000000000081526004016118cb906123bb565b60405180910390fd5b60008260a00151511161191c576040517f08c379a00000000000000000000000000000000000000000000000000000000081526004016119139061235b565b60405180910390fd5b60008260c001515111611964576040517f08c379a000000000000000000000000000000000000000000000000000000000815260040161195b906123fb565b60405180910390fd5b60008260e0015151116119ac576040517f08c379a00000000000000000000000000000000000000000000000000000000081526004016119a39061245b565b60405180910390fd5b600082610100015151116119f5576040517f08c379a00000000000000000000000000000000000000000000000000000000081526004016119ec9061239b565b60405180910390fd5b60008261012001515111611a3e576040517f08c379a0000000000000000000000000000000000000000000000000000000008152600401611a359061247b565b60405180910390fd5b60008261014001515111611a87576040517f08c379a0000000000000000000000000000000000000000000000000000000008152600401611a7e9061241b565b60405180910390fd5b60008090505b600154811015611b00578260000151600080838152602001908152602001600020600001541415611af3576040517f08c379a0000000000000000000000000000000000000000000000000000000008152600401611aea9061243b565b60405180910390fd5b8080600101915050611a8d565b505050565b60405180610160016040528060008152602001606081526020016060815260200160608152602001606081526020016060815260200160608152602001606081526020016060815260200160608152602001606081525090565b828054600181600116156101000203166002900490600052602060002090601f016020900481019282601f10611ba057805160ff1916838001178555611bce565b82800160010185558215611bce579182015b82811115611bcd578251825591602001919060010190611bb2565b5b509050611bdb9190611bdf565b5090565b611c0191905b80821115611bfd576000816000905550600101611be5565b5090565b90565b600082601f830112611c1557600080fd5b8135611c28611c2382612705565b6126d8565b91508082526020830160208301858383011115611c4457600080fd5b611c4f83828461276d565b50505092915050565b600081359050611c67816127c0565b92915050565b600060208284031215611c7f57600080fd5b6000611c8d84828501611c58565b91505092915050565b60008060008060008060008060008060006101608c8e031215611cb857600080fd5b6000611cc68e828f01611c58565b9b505060208c013567ffffffffffffffff811115611ce357600080fd5b611cef8e828f01611c04565b9a505060408c013567ffffffffffffffff811115611d0c57600080fd5b611d188e828f01611c04565b99505060608c013567ffffffffffffffff811115611d3557600080fd5b611d418e828f01611c04565b98505060808c013567ffffffffffffffff811115611d5e57600080fd5b611d6a8e828f01611c04565b97505060a08c013567ffffffffffffffff811115611d8757600080fd5b611d938e828f01611c04565b96505060c08c013567ffffffffffffffff811115611db057600080fd5b611dbc8e828f01611c04565b95505060e08c013567ffffffffffffffff811115611dd957600080fd5b611de58e828f01611c04565b9450506101008c013567ffffffffffffffff811115611e0357600080fd5b611e0f8e828f01611c04565b9350506101208c013567ffffffffffffffff811115611e2d57600080fd5b611e398e828f01611c04565b9250506101408c013567ffffffffffffffff811115611e5757600080fd5b611e638e828f01611c04565b9150509295989b509295989b9093969950565b6000611e818261273c565b611e8b8185612747565b9350611e9b81856020860161277c565b611ea4816127af565b840191505092915050565b6000611eba82612731565b611ec48185612747565b9350611ed481856020860161277c565b611edd816127af565b840191505092915050565b6000611ef5601883612747565b91507f6d6f74686572206d757374206e6f7420626520656d70747900000000000000006000830152602082019050919050565b6000611f35601983612747565b91507f67656e646572206d757374206e6f74206265204d206f722046000000000000006000830152602082019050919050565b6000611f75602583612747565b91507f6d617465726e616c4772616e64666174686572206d757374206e6f742062652060008301527f656d7074790000000000000000000000000000000000000000000000000000006020830152604082019050919050565b6000611fdb600183612758565b91507f4d000000000000000000000000000000000000000000000000000000000000006000830152600182019050919050565b600061201b601883612747565b91507f666174686572206d757374206e6f7420626520656d70747900000000000000006000830152602082019050919050565b600061205b601683612747565b91507f63697479206d757374206e6f7420626520656d707479000000000000000000006000830152602082019050919050565b600061209b602583612747565b91507f70617465726e616c4772616e64666174686572206d757374206e6f742062652060008301527f656d7074790000000000000000000000000000000000000000000000000000006020830152604082019050919050565b6000612101601983612747565b91507f7769746e657373206d757374206e6f7420626520656d707479000000000000006000830152602082019050919050565b6000612141601383612747565b91507f636f6465206d75737420626520756e69717565000000000000000000000000006000830152602082019050919050565b6000612181602583612747565b91507f70617465726e616c4772616e646d6f74686572206d757374206e6f742062652060008301527f656d7074790000000000000000000000000000000000000000000000000000006020830152604082019050919050565b60006121e7602583612747565b91507f6d617465726e616c4772616e646d6f74686572206d757374206e6f742062652060008301527f656d7074790000000000000000000000000000000000000000000000000000006020830152604082019050919050565b600061224d601683612747565b91507f636f6465206d757374206e6f7420626520656d707479000000000000000000006000830152602082019050919050565b600061228d600183612758565b91507f46000000000000000000000000000000000000000000000000000000000000006000830152600182019050919050565b60006122cd601683612747565b91507f6e616d65206d757374206e6f7420626520656d707479000000000000000000006000830152602082019050919050565b61230981612763565b82525050565b600061231a82611fce565b9150819050919050565b600061232f82612280565b9150819050919050565b600060208201905081810360008301526123538184611e76565b905092915050565b6000602082019050818103600083015261237481611ee8565b9050919050565b6000602082019050818103600083015261239481611f28565b9050919050565b600060208201905081810360008301526123b481611f68565b9050919050565b600060208201905081810360008301526123d48161200e565b9050919050565b600060208201905081810360008301526123f48161204e565b9050919050565b600060208201905081810360008301526124148161208e565b9050919050565b60006020820190508181036000830152612434816120f4565b9050919050565b6000602082019050818103600083015261245481612134565b9050919050565b6000602082019050818103600083015261247481612174565b9050919050565b60006020820190508181036000830152612494816121da565b9050919050565b600060208201905081810360008301526124b481612240565b9050919050565b600060208201905081810360008301526124d4816122c0565b9050919050565b60006020820190506124f06000830184612300565b92915050565b60006101608201905061250c600083018e612300565b818103602083015261251e818d611e76565b90508181036040830152612532818c611e76565b90508181036060830152612546818b611e76565b9050818103608083015261255a818a611e76565b905081810360a083015261256e8189611e76565b905081810360c08301526125828188611e76565b905081810360e08301526125968187611e76565b90508181036101008301526125ab8186611e76565b90508181036101208301526125c08185611e76565b90508181036101408301526125d58184611e76565b90509c9b505050505050505050505050565b6000610160820190506125fd600083018e612300565b818103602083015261260f818d611eaf565b90508181036040830152612623818c611eaf565b90508181036060830152612637818b611eaf565b9050818103608083015261264b818a611eaf565b905081810360a083015261265f8189611eaf565b905081810360c08301526126738188611eaf565b905081810360e08301526126878187611eaf565b905081810361010083015261269c8186611eaf565b90508181036101208301526126b18185611eaf565b90508181036101408301526126c68184611eaf565b90509c9b505050505050505050505050565b6000604051905081810181811067ffffffffffffffff821117156126fb57600080fd5b8060405250919050565b600067ffffffffffffffff82111561271c57600080fd5b601f19601f8301169050602081019050919050565b600081519050919050565b600081519050919050565b600082825260208201905092915050565b600081905092915050565b6000819050919050565b82818337600083830152505050565b60005b8381101561279a57808201518184015260208101905061277f565b838111156127a9576000848401525b50505050565b6000601f19601f8301169050919050565b6127c981612763565b81146127d457600080fd5b5056fea265627a7a723058202aeb68993c06ecd74e360f93f85a6b8f6c1970d59d1a547f5041e55f4082881a6c6578706572696d656e74616cf50037",
  "source": "pragma solidity 0.5.8;\npragma experimental ABIEncoderV2;\n\ncontract Notary {\n\n    event createdEvent (\n        uint indexed _code\n    );\n\n   struct Certificate {\n        uint code;\n        string name;\n        string city;\n        string gender;\n        string father;\n        string mother;\n        string paternalGrandfather;\n        string paternalGrandmother;\n        string maternalGrandfather;\n        string maternalGrandmother;\n        string witness;\n    }\n    // Read/write Certificates\n    mapping(uint => Certificate) public certificates;\n    uint public certificateCount;\n\n    constructor() public {}\n\n    function createCertificate ( uint _code,\n                                string memory _name,\n                                string memory _city,\n                                string memory _gender,\n                                string memory _father,\n                                string memory _mother,\n                                string memory _paternalGrandfather,\n                                string memory _paternalGrandmother,\n                                string memory _maternalGrandfather,\n                                string memory _maternalGrandmother,\n                                string memory _witness ) public {\n\n        certificateCount ++;\n        Certificate memory certificate;\n        certificate.code = _code;\n        certificate.name = _name;\n        certificate.city = _city;\n        certificate.gender = _gender;\n        certificate.father = _father;\n        certificate.mother = _mother;\n        certificate.paternalGrandfather = _paternalGrandfather;\n        certificate.paternalGrandmother = _paternalGrandmother;\n        certificate.maternalGrandfather = _maternalGrandfather;\n        certificate.maternalGrandmother = _maternalGrandmother;\n        certificate.witness = _witness;\n\n        validateCertificate(certificate);\n\n        certificates[_code] = certificate;\n        \n        emit createdEvent(_code);\n    }\n\n    function get() public view returns (string memory) {\n        Certificate memory certificate = certificates[1];\n        return certificate.name;\n    }\n\n    function getByID(uint _code) public view returns (uint code,\n                                                    string memory name,\n                                                    string memory city,\n                                                    string memory gender,\n                                                    string memory father,\n                                                    string memory mother,\n                                                    string memory paternalGrandfather,\n                                                    string memory paternalGrandmother,\n                                                    string memory maternalGrandfather,\n                                                    string memory maternalGrandmother,\n                                                    string memory witness ) {\n        Certificate memory certificate = certificates[_code];\n        return (certificate.code,\n                certificate.name,\n                certificate.city,\n                certificate.gender,\n                certificate.father,\n                certificate.mother,\n                certificate.paternalGrandfather,\n                certificate.paternalGrandmother,\n                certificate.maternalGrandfather,\n                certificate.maternalGrandmother,\n                certificate.witness);\n    }\n\n    function validateCertificate(Certificate memory certificate) private {\n        require(certificate.code != 0, 'code must not be empty');\n        require(bytes(certificate.name).length > 0, 'name must not be empty');\n        require(bytes(certificate.city).length > 0, 'city must not be empty');\n        bytes memory gender = bytes(certificate.gender);\n        require(keccak256(gender) == keccak256('M') || keccak256(gender) == keccak256('F'), 'gender must not be M or F');\n        require(bytes(certificate.father).length > 0, 'father must not be empty');\n        require(bytes(certificate.mother).length > 0, 'mother must not be empty');\n        require(bytes(certificate.paternalGrandfather).length > 0, 'paternalGrandfather must not be empty');\n        require(bytes(certificate.paternalGrandmother).length > 0, 'paternalGrandmother must not be empty');\n        require(bytes(certificate.maternalGrandfather).length > 0, 'maternalGrandfather must not be empty');\n        require(bytes(certificate.maternalGrandmother).length > 0, 'maternalGrandmother must not be empty');\n        require(bytes(certificate.witness).length > 0, 'witness must not be empty');\n\n        for ( uint i = 0; i < certificateCount; i++ ) {\n            require(certificates[i].code != certificate.code, 'code must be unique');\n        }\n    }\n}",
  "sourcePath": "/Users/douglasmandarino/Documents/PUC/Blockchain/BirthCertificate/contracts/Notary.sol",
  "compiler": {
    "name": "solc",
    "version": "0.5.8+commit.23d335f2.Emscripten.clang"
  },
  "schemaVersion": "3.0.16",
  "updatedAt": "2019-10-22T04:41:44.956Z",
  "devdoc": {
    "methods": {}
  },
  "userdoc": {
    "methods": {}
  }
}