{
  "contractName": "Notary",
  "abi": [
    {
      "constant": true,
      "inputs": [],
      "name": "certificateCount",
      "outputs": [
        {
          "name": "",
          "type": "uint256"
        }
      ],
      "payable": false,
      "stateMutability": "view",
      "type": "function"
    },
    {
      "constant": true,
      "inputs": [
        {
          "name": "",
          "type": "uint256"
        }
      ],
      "name": "certificates",
      "outputs": [
        {
          "name": "code",
          "type": "uint256"
        },
        {
          "name": "name",
          "type": "string"
        },
        {
          "name": "city",
          "type": "string"
        },
        {
          "name": "gender",
          "type": "string"
        },
        {
          "name": "father",
          "type": "string"
        },
        {
          "name": "mother",
          "type": "string"
        },
        {
          "name": "paternalGrandfather",
          "type": "string"
        },
        {
          "name": "paternalGrandmother",
          "type": "string"
        },
        {
          "name": "maternalGrandfather",
          "type": "string"
        },
        {
          "name": "maternalGrandmother",
          "type": "string"
        },
        {
          "name": "witness",
          "type": "string"
        }
      ],
      "payable": false,
      "stateMutability": "view",
      "type": "function"
    },
    {
      "inputs": [],
      "payable": false,
      "stateMutability": "nonpayable",
      "type": "constructor"
    },
    {
      "anonymous": false,
      "inputs": [
        {
          "indexed": true,
          "name": "_code",
          "type": "uint256"
        }
      ],
      "name": "createdEvent",
      "type": "event"
    },
    {
      "constant": false,
      "inputs": [
        {
          "name": "_code",
          "type": "uint256"
        },
        {
          "name": "_name",
          "type": "string"
        },
        {
          "name": "_city",
          "type": "string"
        },
        {
          "name": "_gender",
          "type": "string"
        },
        {
          "name": "_father",
          "type": "string"
        },
        {
          "name": "_mother",
          "type": "string"
        },
        {
          "name": "_paternalGrandfather",
          "type": "string"
        },
        {
          "name": "_paternalGrandmother",
          "type": "string"
        },
        {
          "name": "_maternalGrandfather",
          "type": "string"
        },
        {
          "name": "_maternalGrandmother",
          "type": "string"
        },
        {
          "name": "_witness",
          "type": "string"
        }
      ],
      "name": "createCertificate",
      "outputs": [],
      "payable": false,
      "stateMutability": "nonpayable",
      "type": "function"
    }
  ],
  "bytecode": "0x608060405234801561001057600080fd5b506118a3806100206000396000f3fe608060405234801561001057600080fd5b50600436106100415760003560e01c806352d7b89c1461004657806358e630e314610064578063663b3e2214610080575b600080fd5b61004e6100ba565b60405161005b9190611669565b60405180910390f35b61007e60048036036100799190810190610e7f565b6100c0565b005b61009a60048036036100959190810190610e56565b6102ca565b6040516100b19b9a99989796959493929190611684565b60405180910390f35b60015481565b6001600081548092919060010191905055506100da610cee565b8b8160000181815250508a8160200181905250898160400181905250888160600181905250878160800181905250868160a00181905250858160c00181905250848160e0018190525083816101000181905250828161012001819052508181610140018190525061014a81610914565b806000808e8152602001908152602001600020600082015181600001556020820151816001019080519060200190610183929190610d48565b5060408201518160020190805190602001906101a0929190610d48565b5060608201518160030190805190602001906101bd929190610d48565b5060808201518160040190805190602001906101da929190610d48565b5060a08201518160050190805190602001906101f7929190610d48565b5060c0820151816006019080519060200190610214929190610d48565b5060e0820151816007019080519060200190610231929190610d48565b5061010082015181600801908051906020019061024f929190610d48565b5061012082015181600901908051906020019061026d929190610d48565b5061014082015181600a01908051906020019061028b929190610d48565b509050508b7fa854a749979502a204992acac225fdcbf427947356505ac9c7126f6244f1434460405160405180910390a2505050505050505050505050565b6000602052806000526040600020600091509050806000015490806001018054600181600116156101000203166002900480601f01602080910402602001604051908101604052809291908181526020018280546001816001161561010002031660029004801561037c5780601f106103515761010080835404028352916020019161037c565b820191906000526020600020905b81548152906001019060200180831161035f57829003601f168201915b505050505090806002018054600181600116156101000203166002900480601f01602080910402602001604051908101604052809291908181526020018280546001816001161561010002031660029004801561041a5780601f106103ef5761010080835404028352916020019161041a565b820191906000526020600020905b8154815290600101906020018083116103fd57829003601f168201915b505050505090806003018054600181600116156101000203166002900480601f0160208091040260200160405190810160405280929190818152602001828054600181600116156101000203166002900480156104b85780601f1061048d576101008083540402835291602001916104b8565b820191906000526020600020905b81548152906001019060200180831161049b57829003601f168201915b505050505090806004018054600181600116156101000203166002900480601f0160208091040260200160405190810160405280929190818152602001828054600181600116156101000203166002900480156105565780601f1061052b57610100808354040283529160200191610556565b820191906000526020600020905b81548152906001019060200180831161053957829003601f168201915b505050505090806005018054600181600116156101000203166002900480601f0160208091040260200160405190810160405280929190818152602001828054600181600116156101000203166002900480156105f45780601f106105c9576101008083540402835291602001916105f4565b820191906000526020600020905b8154815290600101906020018083116105d757829003601f168201915b505050505090806006018054600181600116156101000203166002900480601f0160208091040260200160405190810160405280929190818152602001828054600181600116156101000203166002900480156106925780601f1061066757610100808354040283529160200191610692565b820191906000526020600020905b81548152906001019060200180831161067557829003601f168201915b505050505090806007018054600181600116156101000203166002900480601f0160208091040260200160405190810160405280929190818152602001828054600181600116156101000203166002900480156107305780601f1061070557610100808354040283529160200191610730565b820191906000526020600020905b81548152906001019060200180831161071357829003601f168201915b505050505090806008018054600181600116156101000203166002900480601f0160208091040260200160405190810160405280929190818152602001828054600181600116156101000203166002900480156107ce5780601f106107a3576101008083540402835291602001916107ce565b820191906000526020600020905b8154815290600101906020018083116107b157829003601f168201915b505050505090806009018054600181600116156101000203166002900480601f01602080910402602001604051908101604052809291908181526020018280546001816001161561010002031660029004801561086c5780601f106108415761010080835404028352916020019161086c565b820191906000526020600020905b81548152906001019060200180831161084f57829003601f168201915b50505050509080600a018054600181600116156101000203166002900480601f01602080910402602001604051908101604052809291908181526020018280546001816001161561010002031660029004801561090a5780601f106108df5761010080835404028352916020019161090a565b820191906000526020600020905b8154815290600101906020018083116108ed57829003601f168201915b505050505090508b565b60008160000151141561095c576040517f08c379a000000000000000000000000000000000000000000000000000000000815260040161095390611629565b60405180910390fd5b6000816020015151116109a4576040517f08c379a000000000000000000000000000000000000000000000000000000000815260040161099b90611649565b60405180910390fd5b6000816040015151116109ec576040517f08c379a00000000000000000000000000000000000000000000000000000000081526004016109e390611569565b60405180910390fd5b606081606001519050604051610a01906114bf565b604051809103902081805190602001201480610a365750604051610a24906114d4565b60405180910390208180519060200120145b610a75576040517f08c379a0000000000000000000000000000000000000000000000000000000008152600401610a6c90611509565b60405180910390fd5b600082608001515111610abd576040517f08c379a0000000000000000000000000000000000000000000000000000000008152600401610ab490611549565b60405180910390fd5b60008260a001515111610b05576040517f08c379a0000000000000000000000000000000000000000000000000000000008152600401610afc906114e9565b60405180910390fd5b60008260c001515111610b4d576040517f08c379a0000000000000000000000000000000000000000000000000000000008152600401610b4490611589565b60405180910390fd5b60008260e001515111610b95576040517f08c379a0000000000000000000000000000000000000000000000000000000008152600401610b8c906115e9565b60405180910390fd5b60008261010001515111610bde576040517f08c379a0000000000000000000000000000000000000000000000000000000008152600401610bd590611529565b60405180910390fd5b60008261012001515111610c27576040517f08c379a0000000000000000000000000000000000000000000000000000000008152600401610c1e90611609565b60405180910390fd5b60008261014001515111610c70576040517f08c379a0000000000000000000000000000000000000000000000000000000008152600401610c67906115a9565b60405180910390fd5b60008090505b600154811015610ce9578260000151600080838152602001908152602001600020600001541415610cdc576040517f08c379a0000000000000000000000000000000000000000000000000000000008152600401610cd3906115c9565b60405180910390fd5b8080600101915050610c76565b505050565b60405180610160016040528060008152602001606081526020016060815260200160608152602001606081526020016060815260200160608152602001606081526020016060815260200160608152602001606081525090565b828054600181600116156101000203166002900490600052602060002090601f016020900481019282601f10610d8957805160ff1916838001178555610db7565b82800160010185558215610db7579182015b82811115610db6578251825591602001919060010190610d9b565b5b509050610dc49190610dc8565b5090565b610dea91905b80821115610de6576000816000905550600101610dce565b5090565b90565b600082601f830112610dfe57600080fd5b8135610e11610e0c826117a2565b611775565b91508082526020830160208301858383011115610e2d57600080fd5b610e388382846117ff565b50505092915050565b600081359050610e5081611852565b92915050565b600060208284031215610e6857600080fd5b6000610e7684828501610e41565b91505092915050565b60008060008060008060008060008060006101608c8e031215610ea157600080fd5b6000610eaf8e828f01610e41565b9b505060208c013567ffffffffffffffff811115610ecc57600080fd5b610ed88e828f01610ded565b9a505060408c013567ffffffffffffffff811115610ef557600080fd5b610f018e828f01610ded565b99505060608c013567ffffffffffffffff811115610f1e57600080fd5b610f2a8e828f01610ded565b98505060808c013567ffffffffffffffff811115610f4757600080fd5b610f538e828f01610ded565b97505060a08c013567ffffffffffffffff811115610f7057600080fd5b610f7c8e828f01610ded565b96505060c08c013567ffffffffffffffff811115610f9957600080fd5b610fa58e828f01610ded565b95505060e08c013567ffffffffffffffff811115610fc257600080fd5b610fce8e828f01610ded565b9450506101008c013567ffffffffffffffff811115610fec57600080fd5b610ff88e828f01610ded565b9350506101208c013567ffffffffffffffff81111561101657600080fd5b6110228e828f01610ded565b9250506101408c013567ffffffffffffffff81111561104057600080fd5b61104c8e828f01610ded565b9150509295989b509295989b9093969950565b600061106a826117ce565b61107481856117d9565b935061108481856020860161180e565b61108d81611841565b840191505092915050565b60006110a56018836117d9565b91507f6d6f74686572206d757374206e6f7420626520656d70747900000000000000006000830152602082019050919050565b60006110e56019836117d9565b91507f67656e646572206d757374206e6f74206265204d206f722046000000000000006000830152602082019050919050565b60006111256025836117d9565b91507f6d617465726e616c4772616e64666174686572206d757374206e6f742062652060008301527f656d7074790000000000000000000000000000000000000000000000000000006020830152604082019050919050565b600061118b6001836117ea565b91507f4d000000000000000000000000000000000000000000000000000000000000006000830152600182019050919050565b60006111cb6018836117d9565b91507f666174686572206d757374206e6f7420626520656d70747900000000000000006000830152602082019050919050565b600061120b6016836117d9565b91507f63697479206d757374206e6f7420626520656d707479000000000000000000006000830152602082019050919050565b600061124b6025836117d9565b91507f70617465726e616c4772616e64666174686572206d757374206e6f742062652060008301527f656d7074790000000000000000000000000000000000000000000000000000006020830152604082019050919050565b60006112b16019836117d9565b91507f7769746e657373206d757374206e6f7420626520656d707479000000000000006000830152602082019050919050565b60006112f16013836117d9565b91507f636f6465206d75737420626520756e69717565000000000000000000000000006000830152602082019050919050565b60006113316025836117d9565b91507f70617465726e616c4772616e646d6f74686572206d757374206e6f742062652060008301527f656d7074790000000000000000000000000000000000000000000000000000006020830152604082019050919050565b60006113976025836117d9565b91507f6d617465726e616c4772616e646d6f74686572206d757374206e6f742062652060008301527f656d7074790000000000000000000000000000000000000000000000000000006020830152604082019050919050565b60006113fd6016836117d9565b91507f636f6465206d757374206e6f7420626520656d707479000000000000000000006000830152602082019050919050565b600061143d6001836117ea565b91507f46000000000000000000000000000000000000000000000000000000000000006000830152600182019050919050565b600061147d6016836117d9565b91507f6e616d65206d757374206e6f7420626520656d707479000000000000000000006000830152602082019050919050565b6114b9816117f5565b82525050565b60006114ca8261117e565b9150819050919050565b60006114df82611430565b9150819050919050565b6000602082019050818103600083015261150281611098565b9050919050565b60006020820190508181036000830152611522816110d8565b9050919050565b6000602082019050818103600083015261154281611118565b9050919050565b60006020820190508181036000830152611562816111be565b9050919050565b60006020820190508181036000830152611582816111fe565b9050919050565b600060208201905081810360008301526115a28161123e565b9050919050565b600060208201905081810360008301526115c2816112a4565b9050919050565b600060208201905081810360008301526115e2816112e4565b9050919050565b6000602082019050818103600083015261160281611324565b9050919050565b600060208201905081810360008301526116228161138a565b9050919050565b60006020820190508181036000830152611642816113f0565b9050919050565b6000602082019050818103600083015261166281611470565b9050919050565b600060208201905061167e60008301846114b0565b92915050565b60006101608201905061169a600083018e6114b0565b81810360208301526116ac818d61105f565b905081810360408301526116c0818c61105f565b905081810360608301526116d4818b61105f565b905081810360808301526116e8818a61105f565b905081810360a08301526116fc818961105f565b905081810360c0830152611710818861105f565b905081810360e0830152611724818761105f565b9050818103610100830152611739818661105f565b905081810361012083015261174e818561105f565b9050818103610140830152611763818461105f565b90509c9b505050505050505050505050565b6000604051905081810181811067ffffffffffffffff8211171561179857600080fd5b8060405250919050565b600067ffffffffffffffff8211156117b957600080fd5b601f19601f8301169050602081019050919050565b600081519050919050565b600082825260208201905092915050565b600081905092915050565b6000819050919050565b82818337600083830152505050565b60005b8381101561182c578082015181840152602081019050611811565b8381111561183b576000848401525b50505050565b6000601f19601f8301169050919050565b61185b816117f5565b811461186657600080fd5b5056fea265627a7a72305820658e0c912b8fce83bd88d734c036e201d3e00b9d08fa851c053f1d9eaa5f9c346c6578706572696d656e74616cf50037",
  "source": "pragma solidity 0.5.8;\npragma experimental ABIEncoderV2;\n\ncontract Notary {\n\n    event createdEvent (\n        uint indexed _code\n    );\n\n   struct Certificate {\n        uint code;\n        string name;\n        string city;\n        string gender;\n        string father;\n        string mother;\n        string paternalGrandfather;\n        string paternalGrandmother;\n        string maternalGrandfather;\n        string maternalGrandmother;\n        string witness;\n    }\n    // Read/write Certificates\n    mapping(uint => Certificate) public certificates;\n    uint public certificateCount;\n\n    constructor() public {}\n\n    function createCertificate ( uint _code,\n                                string memory _name,\n                                string memory _city,\n                                string memory _gender,\n                                string memory _father,\n                                string memory _mother,\n                                string memory _paternalGrandfather,\n                                string memory _paternalGrandmother,\n                                string memory _maternalGrandfather,\n                                string memory _maternalGrandmother,\n                                string memory _witness ) public {\n\n        certificateCount ++;\n        Certificate memory certificate;\n        certificate.code = _code;\n        certificate.name = _name;\n        certificate.city = _city;\n        certificate.gender = _gender;\n        certificate.father = _father;\n        certificate.mother = _mother;\n        certificate.paternalGrandfather = _paternalGrandfather;\n        certificate.paternalGrandmother = _paternalGrandmother;\n        certificate.maternalGrandfather = _maternalGrandfather;\n        certificate.maternalGrandmother = _maternalGrandmother;\n        certificate.witness = _witness;\n\n        validateCertificate(certificate);\n\n        certificates[_code] = certificate;\n        \n        emit createdEvent(_code);\n    }\n\n    function validateCertificate(Certificate memory certificate) private {\n        require(certificate.code != 0, 'code must not be empty');\n        require(bytes(certificate.name).length > 0, 'name must not be empty');\n        require(bytes(certificate.city).length > 0, 'city must not be empty');\n        bytes memory gender = bytes(certificate.gender);\n        require(keccak256(gender) == keccak256('M') || keccak256(gender) == keccak256('F'), 'gender must not be M or F');\n        require(bytes(certificate.father).length > 0, 'father must not be empty');\n        require(bytes(certificate.mother).length > 0, 'mother must not be empty');\n        require(bytes(certificate.paternalGrandfather).length > 0, 'paternalGrandfather must not be empty');\n        require(bytes(certificate.paternalGrandmother).length > 0, 'paternalGrandmother must not be empty');\n        require(bytes(certificate.maternalGrandfather).length > 0, 'maternalGrandfather must not be empty');\n        require(bytes(certificate.maternalGrandmother).length > 0, 'maternalGrandmother must not be empty');\n        require(bytes(certificate.witness).length > 0, 'witness must not be empty');\n\n        for ( uint i = 0; i < certificateCount; i++ ) {\n            require(certificates[i].code != certificate.code, 'code must be unique');\n        }\n    }\n}",
  "sourcePath": "/Users/douglasmandarino/Documents/PUC/Blockchain/BirthCertificate/contracts/Notary.sol",
  "compiler": {
    "name": "solc",
    "version": "0.5.8+commit.23d335f2.Emscripten.clang"
  },
  "schemaVersion": "3.0.16",
  "updatedAt": "2019-10-22T04:54:31.117Z",
  "devdoc": {
    "methods": {}
  },
  "userdoc": {
    "methods": {}
  }
}