{
  "contractName": "Notary",
  "abi": [
    {
      "constant": true,
      "inputs": [],
      "name": "certificateCount",
      "outputs": [
        {
          "name": "",
          "type": "uint256"
        }
      ],
      "payable": false,
      "stateMutability": "view",
      "type": "function"
    },
    {
      "constant": true,
      "inputs": [
        {
          "name": "",
          "type": "uint256"
        }
      ],
      "name": "certificates",
      "outputs": [
        {
          "name": "code",
          "type": "uint256"
        },
        {
          "name": "name",
          "type": "string"
        },
        {
          "name": "city",
          "type": "string"
        },
        {
          "name": "gender",
          "type": "string"
        },
        {
          "name": "father",
          "type": "string"
        },
        {
          "name": "mother",
          "type": "string"
        },
        {
          "name": "paternalGrandfather",
          "type": "string"
        },
        {
          "name": "paternalGrandmother",
          "type": "string"
        },
        {
          "name": "maternalGrandfather",
          "type": "string"
        },
        {
          "name": "maternalGrandmother",
          "type": "string"
        },
        {
          "name": "witness",
          "type": "string"
        }
      ],
      "payable": false,
      "stateMutability": "view",
      "type": "function"
    },
    {
      "constant": true,
      "inputs": [
        {
          "name": "",
          "type": "uint256"
        }
      ],
      "name": "codePosition",
      "outputs": [
        {
          "name": "",
          "type": "uint256"
        }
      ],
      "payable": false,
      "stateMutability": "view",
      "type": "function"
    },
    {
      "inputs": [],
      "payable": false,
      "stateMutability": "nonpayable",
      "type": "constructor"
    },
    {
      "anonymous": false,
      "inputs": [
        {
          "indexed": true,
          "name": "_code",
          "type": "uint256"
        }
      ],
      "name": "createdEvent",
      "type": "event"
    },
    {
      "constant": false,
      "inputs": [
        {
          "name": "_code",
          "type": "uint256"
        },
        {
          "name": "_name",
          "type": "string"
        },
        {
          "name": "_city",
          "type": "string"
        },
        {
          "name": "_gender",
          "type": "string"
        },
        {
          "name": "_father",
          "type": "string"
        },
        {
          "name": "_mother",
          "type": "string"
        },
        {
          "name": "_paternalGrandfather",
          "type": "string"
        },
        {
          "name": "_paternalGrandmother",
          "type": "string"
        },
        {
          "name": "_maternalGrandfather",
          "type": "string"
        },
        {
          "name": "_maternalGrandmother",
          "type": "string"
        },
        {
          "name": "_witness",
          "type": "string"
        }
      ],
      "name": "createCertificate",
      "outputs": [],
      "payable": false,
      "stateMutability": "nonpayable",
      "type": "function"
    },
    {
      "constant": true,
      "inputs": [
        {
          "name": "_code",
          "type": "uint256"
        }
      ],
      "name": "getCertificateKey",
      "outputs": [
        {
          "name": "",
          "type": "uint256"
        }
      ],
      "payable": false,
      "stateMutability": "view",
      "type": "function"
    }
  ],
  "bytecode": "0x608060405234801561001057600080fd5b506118a9806100206000396000f3fe608060405234801561001057600080fd5b50600436106100575760003560e01c80634f2cc63c1461005c57806352d7b89c1461008c57806358e630e3146100aa578063663b3e22146100c6578063ab5f9e4514610100575b600080fd5b61007660048036036100719190810190610ebc565b610130565b604051610083919061166f565b60405180910390f35b610094610152565b6040516100a1919061166f565b60405180910390f35b6100c460048036036100bf9190810190610ee5565b610158565b005b6100e060048036036100db9190810190610ebc565b61037e565b6040516100f79b9a9998979695949392919061168a565b60405180910390f35b61011a60048036036101159190810190610ebc565b6109c8565b604051610127919061166f565b60405180910390f35b6000806001600084815260200190815260200160002054905080915050919050565b60025481565b600260008154809291906001019190505550610172610d54565b8b8160000181815250508a8160200181905250898160400181905250888160600181905250878160800181905250868160a00181905250858160c00181905250848160e001819052508381610100018190525082816101200181905250818161014001819052506101e2816109e0565b80600080600254815260200190815260200160002060008201518160000155602082015181600101908051906020019061021d929190610dae565b50604082015181600201908051906020019061023a929190610dae565b506060820151816003019080519060200190610257929190610dae565b506080820151816004019080519060200190610274929190610dae565b5060a0820151816005019080519060200190610291929190610dae565b5060c08201518160060190805190602001906102ae929190610dae565b5060e08201518160070190805190602001906102cb929190610dae565b506101008201518160080190805190602001906102e9929190610dae565b50610120820151816009019080519060200190610307929190610dae565b5061014082015181600a019080519060200190610325929190610dae565b50905050600254600160008e8152602001908152602001600020819055508b7fa854a749979502a204992acac225fdcbf427947356505ac9c7126f6244f1434460405160405180910390a2505050505050505050505050565b6000602052806000526040600020600091509050806000015490806001018054600181600116156101000203166002900480601f0160208091040260200160405190810160405280929190818152602001828054600181600116156101000203166002900480156104305780601f1061040557610100808354040283529160200191610430565b820191906000526020600020905b81548152906001019060200180831161041357829003601f168201915b505050505090806002018054600181600116156101000203166002900480601f0160208091040260200160405190810160405280929190818152602001828054600181600116156101000203166002900480156104ce5780601f106104a3576101008083540402835291602001916104ce565b820191906000526020600020905b8154815290600101906020018083116104b157829003601f168201915b505050505090806003018054600181600116156101000203166002900480601f01602080910402602001604051908101604052809291908181526020018280546001816001161561010002031660029004801561056c5780601f106105415761010080835404028352916020019161056c565b820191906000526020600020905b81548152906001019060200180831161054f57829003601f168201915b505050505090806004018054600181600116156101000203166002900480601f01602080910402602001604051908101604052809291908181526020018280546001816001161561010002031660029004801561060a5780601f106105df5761010080835404028352916020019161060a565b820191906000526020600020905b8154815290600101906020018083116105ed57829003601f168201915b505050505090806005018054600181600116156101000203166002900480601f0160208091040260200160405190810160405280929190818152602001828054600181600116156101000203166002900480156106a85780601f1061067d576101008083540402835291602001916106a8565b820191906000526020600020905b81548152906001019060200180831161068b57829003601f168201915b505050505090806006018054600181600116156101000203166002900480601f0160208091040260200160405190810160405280929190818152602001828054600181600116156101000203166002900480156107465780601f1061071b57610100808354040283529160200191610746565b820191906000526020600020905b81548152906001019060200180831161072957829003601f168201915b505050505090806007018054600181600116156101000203166002900480601f0160208091040260200160405190810160405280929190818152602001828054600181600116156101000203166002900480156107e45780601f106107b9576101008083540402835291602001916107e4565b820191906000526020600020905b8154815290600101906020018083116107c757829003601f168201915b505050505090806008018054600181600116156101000203166002900480601f0160208091040260200160405190810160405280929190818152602001828054600181600116156101000203166002900480156108825780601f1061085757610100808354040283529160200191610882565b820191906000526020600020905b81548152906001019060200180831161086557829003601f168201915b505050505090806009018054600181600116156101000203166002900480601f0160208091040260200160405190810160405280929190818152602001828054600181600116156101000203166002900480156109205780601f106108f557610100808354040283529160200191610920565b820191906000526020600020905b81548152906001019060200180831161090357829003601f168201915b50505050509080600a018054600181600116156101000203166002900480601f0160208091040260200160405190810160405280929190818152602001828054600181600116156101000203166002900480156109be5780601f10610993576101008083540402835291602001916109be565b820191906000526020600020905b8154815290600101906020018083116109a157829003601f168201915b505050505090508b565b60016020528060005260406000206000915090505481565b6000806000836000015181526020019081526020016000206000015414610a3c576040517f08c379a0000000000000000000000000000000000000000000000000000000008152600401610a33906115ef565b60405180910390fd5b600081602001515111610a84576040517f08c379a0000000000000000000000000000000000000000000000000000000008152600401610a7b9061164f565b60405180910390fd5b600081604001515111610acc576040517f08c379a0000000000000000000000000000000000000000000000000000000008152600401610ac39061158f565b60405180910390fd5b606081606001519050604051610ae1906114e5565b604051809103902081805190602001201480610b165750604051610b04906114fa565b60405180910390208180519060200120145b610b55576040517f08c379a0000000000000000000000000000000000000000000000000000000008152600401610b4c9061152f565b60405180910390fd5b600082608001515111610b9d576040517f08c379a0000000000000000000000000000000000000000000000000000000008152600401610b949061156f565b60405180910390fd5b60008260a001515111610be5576040517f08c379a0000000000000000000000000000000000000000000000000000000008152600401610bdc9061150f565b60405180910390fd5b60008260c001515111610c2d576040517f08c379a0000000000000000000000000000000000000000000000000000000008152600401610c24906115af565b60405180910390fd5b60008260e001515111610c75576040517f08c379a0000000000000000000000000000000000000000000000000000000008152600401610c6c9061160f565b60405180910390fd5b60008261010001515111610cbe576040517f08c379a0000000000000000000000000000000000000000000000000000000008152600401610cb59061154f565b60405180910390fd5b60008261012001515111610d07576040517f08c379a0000000000000000000000000000000000000000000000000000000008152600401610cfe9061162f565b60405180910390fd5b60008261014001515111610d50576040517f08c379a0000000000000000000000000000000000000000000000000000000008152600401610d47906115cf565b60405180910390fd5b5050565b60405180610160016040528060008152602001606081526020016060815260200160608152602001606081526020016060815260200160608152602001606081526020016060815260200160608152602001606081525090565b828054600181600116156101000203166002900490600052602060002090601f016020900481019282601f10610def57805160ff1916838001178555610e1d565b82800160010185558215610e1d579182015b82811115610e1c578251825591602001919060010190610e01565b5b509050610e2a9190610e2e565b5090565b610e5091905b80821115610e4c576000816000905550600101610e34565b5090565b90565b600082601f830112610e6457600080fd5b8135610e77610e72826117a8565b61177b565b91508082526020830160208301858383011115610e9357600080fd5b610e9e838284611805565b50505092915050565b600081359050610eb681611858565b92915050565b600060208284031215610ece57600080fd5b6000610edc84828501610ea7565b91505092915050565b60008060008060008060008060008060006101608c8e031215610f0757600080fd5b6000610f158e828f01610ea7565b9b505060208c013567ffffffffffffffff811115610f3257600080fd5b610f3e8e828f01610e53565b9a505060408c013567ffffffffffffffff811115610f5b57600080fd5b610f678e828f01610e53565b99505060608c013567ffffffffffffffff811115610f8457600080fd5b610f908e828f01610e53565b98505060808c013567ffffffffffffffff811115610fad57600080fd5b610fb98e828f01610e53565b97505060a08c013567ffffffffffffffff811115610fd657600080fd5b610fe28e828f01610e53565b96505060c08c013567ffffffffffffffff811115610fff57600080fd5b61100b8e828f01610e53565b95505060e08c013567ffffffffffffffff81111561102857600080fd5b6110348e828f01610e53565b9450506101008c013567ffffffffffffffff81111561105257600080fd5b61105e8e828f01610e53565b9350506101208c013567ffffffffffffffff81111561107c57600080fd5b6110888e828f01610e53565b9250506101408c013567ffffffffffffffff8111156110a657600080fd5b6110b28e828f01610e53565b9150509295989b509295989b9093969950565b60006110d0826117d4565b6110da81856117df565b93506110ea818560208601611814565b6110f381611847565b840191505092915050565b600061110b6018836117df565b91507f6d6f74686572206d757374206e6f7420626520656d70747900000000000000006000830152602082019050919050565b600061114b6019836117df565b91507f67656e646572206d757374206e6f74206265204d206f722046000000000000006000830152602082019050919050565b600061118b6025836117df565b91507f6d617465726e616c4772616e64666174686572206d757374206e6f742062652060008301527f656d7074790000000000000000000000000000000000000000000000000000006020830152604082019050919050565b60006111f16001836117f0565b91507f4d000000000000000000000000000000000000000000000000000000000000006000830152600182019050919050565b60006112316018836117df565b91507f666174686572206d757374206e6f7420626520656d70747900000000000000006000830152602082019050919050565b60006112716016836117df565b91507f63697479206d757374206e6f7420626520656d707479000000000000000000006000830152602082019050919050565b60006112b16025836117df565b91507f70617465726e616c4772616e64666174686572206d757374206e6f742062652060008301527f656d7074790000000000000000000000000000000000000000000000000000006020830152604082019050919050565b60006113176019836117df565b91507f7769746e657373206d757374206e6f7420626520656d707479000000000000006000830152602082019050919050565b60006113576013836117df565b91507f636f6465206d75737420626520756e69717565000000000000000000000000006000830152602082019050919050565b60006113976025836117df565b91507f70617465726e616c4772616e646d6f74686572206d757374206e6f742062652060008301527f656d7074790000000000000000000000000000000000000000000000000000006020830152604082019050919050565b60006113fd6025836117df565b91507f6d617465726e616c4772616e646d6f74686572206d757374206e6f742062652060008301527f656d7074790000000000000000000000000000000000000000000000000000006020830152604082019050919050565b60006114636001836117f0565b91507f46000000000000000000000000000000000000000000000000000000000000006000830152600182019050919050565b60006114a36016836117df565b91507f6e616d65206d757374206e6f7420626520656d707479000000000000000000006000830152602082019050919050565b6114df816117fb565b82525050565b60006114f0826111e4565b9150819050919050565b600061150582611456565b9150819050919050565b60006020820190508181036000830152611528816110fe565b9050919050565b600060208201905081810360008301526115488161113e565b9050919050565b600060208201905081810360008301526115688161117e565b9050919050565b6000602082019050818103600083015261158881611224565b9050919050565b600060208201905081810360008301526115a881611264565b9050919050565b600060208201905081810360008301526115c8816112a4565b9050919050565b600060208201905081810360008301526115e88161130a565b9050919050565b600060208201905081810360008301526116088161134a565b9050919050565b600060208201905081810360008301526116288161138a565b9050919050565b60006020820190508181036000830152611648816113f0565b9050919050565b6000602082019050818103600083015261166881611496565b9050919050565b600060208201905061168460008301846114d6565b92915050565b6000610160820190506116a0600083018e6114d6565b81810360208301526116b2818d6110c5565b905081810360408301526116c6818c6110c5565b905081810360608301526116da818b6110c5565b905081810360808301526116ee818a6110c5565b905081810360a083015261170281896110c5565b905081810360c083015261171681886110c5565b905081810360e083015261172a81876110c5565b905081810361010083015261173f81866110c5565b905081810361012083015261175481856110c5565b905081810361014083015261176981846110c5565b90509c9b505050505050505050505050565b6000604051905081810181811067ffffffffffffffff8211171561179e57600080fd5b8060405250919050565b600067ffffffffffffffff8211156117bf57600080fd5b601f19601f8301169050602081019050919050565b600081519050919050565b600082825260208201905092915050565b600081905092915050565b6000819050919050565b82818337600083830152505050565b60005b83811015611832578082015181840152602081019050611817565b83811115611841576000848401525b50505050565b6000601f19601f8301169050919050565b611861816117fb565b811461186c57600080fd5b5056fea265627a7a7230582025119c5ab8f9e353d5983aab4aa1c2410e71f3e8495c717bff466d5fea2695676c6578706572696d656e74616cf50037",
  "source": "pragma solidity 0.5.8;\npragma experimental ABIEncoderV2;\n\ncontract Notary {\n\n    event createdEvent (\n        uint indexed _code\n    );\n\n   struct Certificate {\n        uint code;\n        string name;\n        string city;\n        string gender;\n        string father;\n        string mother;\n        string paternalGrandfather;\n        string paternalGrandmother;\n        string maternalGrandfather;\n        string maternalGrandmother;\n        string witness;\n    }\n\n    // Read/write Certificates\n    mapping(uint => Certificate) public certificates;\n    mapping(uint => uint) public codePosition;\n    uint public certificateCount;\n\n    constructor() public {}\n\n    function createCertificate ( uint _code,\n                                string memory _name,\n                                string memory _city,\n                                string memory _gender,\n                                string memory _father,\n                                string memory _mother,\n                                string memory _paternalGrandfather,\n                                string memory _paternalGrandmother,\n                                string memory _maternalGrandfather,\n                                string memory _maternalGrandmother,\n                                string memory _witness) public {\n        certificateCount ++;\n        Certificate memory certificate;\n        certificate.code = _code;\n        certificate.name = _name;\n        certificate.city = _city;\n        certificate.gender = _gender;\n        certificate.father = _father;\n        certificate.mother = _mother;\n        certificate.paternalGrandfather = _paternalGrandfather;\n        certificate.paternalGrandmother = _paternalGrandmother;\n        certificate.maternalGrandfather = _maternalGrandfather;\n        certificate.maternalGrandmother = _maternalGrandmother;\n        certificate.witness = _witness;\n\n        validateCertificate(certificate);\n\n        certificates[certificateCount] = certificate;\n        codePosition[_code] = certificateCount;\n\n        emit createdEvent(_code);\n    }\n\n    function getCertificateKey(uint _code) public view returns(uint) {\n        uint position = codePosition[_code];\n        return position;\n    }\n\n    function validateCertificate(Certificate memory certificate) private {\n        require(certificates[certificate.code].code == 0, 'code must be unique');\n        require(bytes(certificate.name).length > 0, 'name must not be empty');\n        require(bytes(certificate.city).length > 0, 'city must not be empty');\n        bytes memory gender = bytes(certificate.gender);\n        require(keccak256(gender) == keccak256('M') || keccak256(gender) == keccak256('F'), 'gender must not be M or F');\n        require(bytes(certificate.father).length > 0, 'father must not be empty');\n        require(bytes(certificate.mother).length > 0, 'mother must not be empty');\n        require(bytes(certificate.paternalGrandfather).length > 0, 'paternalGrandfather must not be empty');\n        require(bytes(certificate.paternalGrandmother).length > 0, 'paternalGrandmother must not be empty');\n        require(bytes(certificate.maternalGrandfather).length > 0, 'maternalGrandfather must not be empty');\n        require(bytes(certificate.maternalGrandmother).length > 0, 'maternalGrandmother must not be empty');\n        require(bytes(certificate.witness).length > 0, 'witness must not be empty');\n    }\n}",
  "sourcePath": "/Users/douglasmandarino/Documents/PUC/Blockchain/BirthCertificate/contracts/Notary.sol",
  "compiler": {
    "name": "solc",
    "version": "0.5.8+commit.23d335f2.Emscripten.clang"
  },
  "schemaVersion": "3.0.16",
  "updatedAt": "2019-10-25T02:12:30.898Z",
  "devdoc": {
    "methods": {}
  },
  "userdoc": {
    "methods": {}
  }
}