{
  "contractName": "Notary",
  "abi": [
    {
      "constant": true,
      "inputs": [],
      "name": "certificateCount",
      "outputs": [
        {
          "name": "",
          "type": "uint256"
        }
      ],
      "payable": false,
      "stateMutability": "view",
      "type": "function"
    },
    {
      "constant": true,
      "inputs": [
        {
          "name": "",
          "type": "uint256"
        }
      ],
      "name": "extras",
      "outputs": [
        {
          "name": "code",
          "type": "uint256"
        },
        {
          "name": "witness",
          "type": "string"
        }
      ],
      "payable": false,
      "stateMutability": "view",
      "type": "function"
    },
    {
      "constant": true,
      "inputs": [
        {
          "name": "",
          "type": "uint256"
        }
      ],
      "name": "people",
      "outputs": [
        {
          "name": "code",
          "type": "uint256"
        },
        {
          "name": "name",
          "type": "string"
        },
        {
          "name": "city",
          "type": "string"
        },
        {
          "name": "state",
          "type": "string"
        },
        {
          "name": "gender",
          "type": "string"
        },
        {
          "name": "day",
          "type": "uint256"
        },
        {
          "name": "month",
          "type": "uint256"
        },
        {
          "name": "year",
          "type": "uint256"
        }
      ],
      "payable": false,
      "stateMutability": "view",
      "type": "function"
    },
    {
      "constant": true,
      "inputs": [
        {
          "name": "",
          "type": "uint256"
        }
      ],
      "name": "codePosition",
      "outputs": [
        {
          "name": "",
          "type": "uint256"
        }
      ],
      "payable": false,
      "stateMutability": "view",
      "type": "function"
    },
    {
      "constant": true,
      "inputs": [
        {
          "name": "",
          "type": "uint256"
        }
      ],
      "name": "relativeList",
      "outputs": [
        {
          "name": "code",
          "type": "uint256"
        },
        {
          "name": "father",
          "type": "string"
        },
        {
          "name": "mother",
          "type": "string"
        },
        {
          "name": "paternalGrandfather",
          "type": "string"
        },
        {
          "name": "paternalGrandmother",
          "type": "string"
        },
        {
          "name": "maternalGrandfather",
          "type": "string"
        },
        {
          "name": "maternalGrandmother",
          "type": "string"
        }
      ],
      "payable": false,
      "stateMutability": "view",
      "type": "function"
    },
    {
      "inputs": [],
      "payable": false,
      "stateMutability": "nonpayable",
      "type": "constructor"
    },
    {
      "anonymous": false,
      "inputs": [
        {
          "indexed": true,
          "name": "_code",
          "type": "uint256"
        }
      ],
      "name": "createdEvent",
      "type": "event"
    },
    {
      "constant": false,
      "inputs": [
        {
          "name": "_code",
          "type": "uint256"
        },
        {
          "name": "_name",
          "type": "string"
        },
        {
          "name": "_city",
          "type": "string"
        },
        {
          "name": "_state",
          "type": "string"
        },
        {
          "name": "_gender",
          "type": "string"
        },
        {
          "name": "_day",
          "type": "uint256"
        },
        {
          "name": "_month",
          "type": "uint256"
        },
        {
          "name": "_year",
          "type": "uint256"
        }
      ],
      "name": "createPerson",
      "outputs": [],
      "payable": false,
      "stateMutability": "nonpayable",
      "type": "function"
    },
    {
      "constant": false,
      "inputs": [
        {
          "name": "_code",
          "type": "uint256"
        },
        {
          "name": "_father",
          "type": "string"
        },
        {
          "name": "_mother",
          "type": "string"
        },
        {
          "name": "_paternalGrandfather",
          "type": "string"
        },
        {
          "name": "_paternalGrandmother",
          "type": "string"
        },
        {
          "name": "_maternalGrandfather",
          "type": "string"
        },
        {
          "name": "_maternalGrandmother",
          "type": "string"
        }
      ],
      "name": "createRelatives",
      "outputs": [],
      "payable": false,
      "stateMutability": "nonpayable",
      "type": "function"
    },
    {
      "constant": true,
      "inputs": [
        {
          "name": "_code",
          "type": "uint256"
        }
      ],
      "name": "getPersonKey",
      "outputs": [
        {
          "name": "",
          "type": "uint256"
        }
      ],
      "payable": false,
      "stateMutability": "view",
      "type": "function"
    }
  ],
  "bytecode": "0x608060405234801561001057600080fd5b50611db2806100206000396000f3fe608060405234801561001057600080fd5b50600436106100885760003560e01c8063ab5f9e451161005b578063ab5f9e451461012f578063c2bee8f51461015f578063e54a9b5a14610195578063e74dbda6146101c557610088565b806352d7b89c1461008d5780635468bc2f146100ab57806372960e2f146100dc5780639e7a13ad146100f8575b600080fd5b6100956101e1565b6040516100a29190611b06565b60405180910390f35b6100c560048036036100c09190810190611233565b6101e7565b6040516100d3929190611b21565b60405180910390f35b6100f660048036036100f1919081019061125c565b6102a3565b005b610112600480360361010d9190810190611233565b6103fc565b604051610126989796959493929190611bea565b60405180910390f35b61014960048036036101449190810190611233565b6106a4565b6040516101569190611b06565b60405180910390f35b61017960048036036101749190810190611233565b6106bc565b60405161018c9796959493929190611b51565b60405180910390f35b6101af60048036036101aa9190810190611233565b610a8e565b6040516101bc9190611b06565b60405180910390f35b6101df60048036036101da919081019061138a565b610ab0565b005b60045481565b6002602052806000526040600020600091509050806000015490806001018054600181600116156101000203166002900480601f0160208091040260200160405190810160405280929190818152602001828054600181600116156101000203166002900480156102995780601f1061026e57610100808354040283529160200191610299565b820191906000526020600020905b81548152906001019060200180831161027c57829003601f168201915b5050505050905082565b6102ab6110a3565b87816000018181525050868160200181905250858160400181905250848160600181905250838160800181905250828160a00181905250818160c001819052506102f481610c25565b806001600060045481526020019081526020016000206000820151816000015560208201518160010190805190602001906103309291906110e0565b50604082015181600201908051906020019061034d9291906110e0565b50606082015181600301908051906020019061036a9291906110e0565b5060808201518160040190805190602001906103879291906110e0565b5060a08201518160050190805190602001906103a49291906110e0565b5060c08201518160060190805190602001906103c19291906110e0565b50905050877fa854a749979502a204992acac225fdcbf427947356505ac9c7126f6244f1434460405160405180910390a25050505050505050565b6000602052806000526040600020600091509050806000015490806001018054600181600116156101000203166002900480601f0160208091040260200160405190810160405280929190818152602001828054600181600116156101000203166002900480156104ae5780601f10610483576101008083540402835291602001916104ae565b820191906000526020600020905b81548152906001019060200180831161049157829003601f168201915b505050505090806002018054600181600116156101000203166002900480601f01602080910402602001604051908101604052809291908181526020018280546001816001161561010002031660029004801561054c5780601f106105215761010080835404028352916020019161054c565b820191906000526020600020905b81548152906001019060200180831161052f57829003601f168201915b505050505090806003018054600181600116156101000203166002900480601f0160208091040260200160405190810160405280929190818152602001828054600181600116156101000203166002900480156105ea5780601f106105bf576101008083540402835291602001916105ea565b820191906000526020600020905b8154815290600101906020018083116105cd57829003601f168201915b505050505090806004018054600181600116156101000203166002900480601f0160208091040260200160405190810160405280929190818152602001828054600181600116156101000203166002900480156106885780601f1061065d57610100808354040283529160200191610688565b820191906000526020600020905b81548152906001019060200180831161066b57829003601f168201915b5050505050908060050154908060060154908060070154905088565b60036020528060005260406000206000915090505481565b6001602052806000526040600020600091509050806000015490806001018054600181600116156101000203166002900480601f01602080910402602001604051908101604052809291908181526020018280546001816001161561010002031660029004801561076e5780601f106107435761010080835404028352916020019161076e565b820191906000526020600020905b81548152906001019060200180831161075157829003601f168201915b505050505090806002018054600181600116156101000203166002900480601f01602080910402602001604051908101604052809291908181526020018280546001816001161561010002031660029004801561080c5780601f106107e15761010080835404028352916020019161080c565b820191906000526020600020905b8154815290600101906020018083116107ef57829003601f168201915b505050505090806003018054600181600116156101000203166002900480601f0160208091040260200160405190810160405280929190818152602001828054600181600116156101000203166002900480156108aa5780601f1061087f576101008083540402835291602001916108aa565b820191906000526020600020905b81548152906001019060200180831161088d57829003601f168201915b505050505090806004018054600181600116156101000203166002900480601f0160208091040260200160405190810160405280929190818152602001828054600181600116156101000203166002900480156109485780601f1061091d57610100808354040283529160200191610948565b820191906000526020600020905b81548152906001019060200180831161092b57829003601f168201915b505050505090806005018054600181600116156101000203166002900480601f0160208091040260200160405190810160405280929190818152602001828054600181600116156101000203166002900480156109e65780601f106109bb576101008083540402835291602001916109e6565b820191906000526020600020905b8154815290600101906020018083116109c957829003601f168201915b505050505090806006018054600181600116156101000203166002900480601f016020809104026020016040519081016040528092919081815260200182805460018160011615610100020316600290048015610a845780601f10610a5957610100808354040283529160200191610a84565b820191906000526020600020905b815481529060010190602001808311610a6757829003601f168201915b5050505050905087565b6000806003600084815260200190815260200160002054905080915050919050565b600460008154809291906001019190505550610aca611160565b88816000018181525050878160200181905250868160400181905250858160600181905250848160800181905250838160a0018181525050828160c0018181525050818160e0018181525050610b1f81610e35565b806000806004548152602001908152602001600020600082015181600001556020820151816001019080519060200190610b5a9291906110e0565b506040820151816002019080519060200190610b779291906110e0565b506060820151816003019080519060200190610b949291906110e0565b506080820151816004019080519060200190610bb19291906110e0565b5060a0820151816005015560c0820151816006015560e08201518160070155905050600454600360008b815260200190815260200160002081905550887fa854a749979502a204992acac225fdcbf427947356505ac9c7126f6244f1434460405160405180910390a2505050505050505050565b600060016000836000015181526020019081526020016000206000015414610c82576040517f08c379a0000000000000000000000000000000000000000000000000000000008152600401610c7990611a66565b60405180910390fd5b600081602001515111610cca576040517f08c379a0000000000000000000000000000000000000000000000000000000008152600401610cc1906119e6565b60405180910390fd5b600081604001515111610d12576040517f08c379a0000000000000000000000000000000000000000000000000000000008152600401610d0990611986565b60405180910390fd5b600081606001515111610d5a576040517f08c379a0000000000000000000000000000000000000000000000000000000008152600401610d5190611a46565b60405180910390fd5b600081608001515111610da2576040517f08c379a0000000000000000000000000000000000000000000000000000000008152600401610d9990611aa6565b60405180910390fd5b60008160a001515111610dea576040517f08c379a0000000000000000000000000000000000000000000000000000000008152600401610de1906119c6565b60405180910390fd5b60008160c001515111610e32576040517f08c379a0000000000000000000000000000000000000000000000000000000008152600401610e2990611ac6565b60405180910390fd5b50565b6000806000836000015181526020019081526020016000206000015414610e91576040517f08c379a0000000000000000000000000000000000000000000000000000000008152600401610e8890611a66565b60405180910390fd5b600081602001515111610ed9576040517f08c379a0000000000000000000000000000000000000000000000000000000008152600401610ed090611ae6565b60405180910390fd5b600081604001515111610f21576040517f08c379a0000000000000000000000000000000000000000000000000000000008152600401610f1890611a26565b60405180910390fd5b60008160a00151118015610f395750601f8160a00151105b610f78576040517f08c379a0000000000000000000000000000000000000000000000000000000008152600401610f6f90611966565b60405180910390fd5b60008160c00151118015610f905750600d8160c00151105b610fcf576040517f08c379a0000000000000000000000000000000000000000000000000000000008152600401610fc690611a06565b60405180910390fd5b60008160e0015111611016576040517f08c379a000000000000000000000000000000000000000000000000000000000815260040161100d90611a86565b60405180910390fd5b60608160800151905060405161102b9061193c565b604051809103902081805190602001201480611060575060405161104e90611951565b60405180910390208180519060200120145b61109f576040517f08c379a0000000000000000000000000000000000000000000000000000000008152600401611096906119a6565b60405180910390fd5b5050565b6040518060e00160405280600081526020016060815260200160608152602001606081526020016060815260200160608152602001606081525090565b828054600181600116156101000203166002900490600052602060002090601f016020900481019282601f1061112157805160ff191683800117855561114f565b8280016001018555821561114f579182015b8281111561114e578251825591602001919060010190611133565b5b50905061115c91906111a5565b5090565b60405180610100016040528060008152602001606081526020016060815260200160608152602001606081526020016000815260200160008152602001600081525090565b6111c791905b808211156111c35760008160009055506001016111ab565b5090565b90565b600082601f8301126111db57600080fd5b81356111ee6111e982611cb1565b611c84565b9150808252602083016020830185838301111561120a57600080fd5b611215838284611d0e565b50505092915050565b60008135905061122d81611d61565b92915050565b60006020828403121561124557600080fd5b60006112538482850161121e565b91505092915050565b600080600080600080600060e0888a03121561127757600080fd5b60006112858a828b0161121e565b975050602088013567ffffffffffffffff8111156112a257600080fd5b6112ae8a828b016111ca565b965050604088013567ffffffffffffffff8111156112cb57600080fd5b6112d78a828b016111ca565b955050606088013567ffffffffffffffff8111156112f457600080fd5b6113008a828b016111ca565b945050608088013567ffffffffffffffff81111561131d57600080fd5b6113298a828b016111ca565b93505060a088013567ffffffffffffffff81111561134657600080fd5b6113528a828b016111ca565b92505060c088013567ffffffffffffffff81111561136f57600080fd5b61137b8a828b016111ca565b91505092959891949750929550565b600080600080600080600080610100898b0312156113a757600080fd5b60006113b58b828c0161121e565b985050602089013567ffffffffffffffff8111156113d257600080fd5b6113de8b828c016111ca565b975050604089013567ffffffffffffffff8111156113fb57600080fd5b6114078b828c016111ca565b965050606089013567ffffffffffffffff81111561142457600080fd5b6114308b828c016111ca565b955050608089013567ffffffffffffffff81111561144d57600080fd5b6114598b828c016111ca565b94505060a061146a8b828c0161121e565b93505060c061147b8b828c0161121e565b92505060e061148c8b828c0161121e565b9150509295985092959890939650565b60006114a782611cdd565b6114b18185611ce8565b93506114c1818560208601611d1d565b6114ca81611d50565b840191505092915050565b60006114e2600983611ce8565b91507f77726f6e672064617900000000000000000000000000000000000000000000006000830152602082019050919050565b6000611522601883611ce8565b91507f6d6f74686572206d757374206e6f7420626520656d70747900000000000000006000830152602082019050919050565b6000611562601983611ce8565b91507f67656e646572206d757374206e6f74206265204d206f722046000000000000006000830152602082019050919050565b60006115a2602583611ce8565b91507f6d617465726e616c4772616e64666174686572206d757374206e6f742062652060008301527f656d7074790000000000000000000000000000000000000000000000000000006020830152604082019050919050565b6000611608600183611cf9565b91507f4d000000000000000000000000000000000000000000000000000000000000006000830152600182019050919050565b6000611648601883611ce8565b91507f666174686572206d757374206e6f7420626520656d70747900000000000000006000830152602082019050919050565b6000611688600b83611ce8565b91507f77726f6e67206d6f6e74680000000000000000000000000000000000000000006000830152602082019050919050565b60006116c8601683611ce8565b91507f63697479206d757374206e6f7420626520656d707479000000000000000000006000830152602082019050919050565b6000611708602583611ce8565b91507f70617465726e616c4772616e64666174686572206d757374206e6f742062652060008301527f656d7074790000000000000000000000000000000000000000000000000000006020830152604082019050919050565b600061176e601383611ce8565b91507f636f6465206d75737420626520756e69717565000000000000000000000000006000830152602082019050919050565b60006117ae601683611ce8565b91507f79656172206d757374206e6f7420626520656d707479000000000000000000006000830152602082019050919050565b60006117ee602583611ce8565b91507f70617465726e616c4772616e646d6f74686572206d757374206e6f742062652060008301527f656d7074790000000000000000000000000000000000000000000000000000006020830152604082019050919050565b6000611854602583611ce8565b91507f6d617465726e616c4772616e646d6f74686572206d757374206e6f742062652060008301527f656d7074790000000000000000000000000000000000000000000000000000006020830152604082019050919050565b60006118ba600183611cf9565b91507f46000000000000000000000000000000000000000000000000000000000000006000830152600182019050919050565b60006118fa601683611ce8565b91507f6e616d65206d757374206e6f7420626520656d707479000000000000000000006000830152602082019050919050565b61193681611d04565b82525050565b6000611947826115fb565b9150819050919050565b600061195c826118ad565b9150819050919050565b6000602082019050818103600083015261197f816114d5565b9050919050565b6000602082019050818103600083015261199f81611515565b9050919050565b600060208201905081810360008301526119bf81611555565b9050919050565b600060208201905081810360008301526119df81611595565b9050919050565b600060208201905081810360008301526119ff8161163b565b9050919050565b60006020820190508181036000830152611a1f8161167b565b9050919050565b60006020820190508181036000830152611a3f816116bb565b9050919050565b60006020820190508181036000830152611a5f816116fb565b9050919050565b60006020820190508181036000830152611a7f81611761565b9050919050565b60006020820190508181036000830152611a9f816117a1565b9050919050565b60006020820190508181036000830152611abf816117e1565b9050919050565b60006020820190508181036000830152611adf81611847565b9050919050565b60006020820190508181036000830152611aff816118ed565b9050919050565b6000602082019050611b1b600083018461192d565b92915050565b6000604082019050611b36600083018561192d565b8181036020830152611b48818461149c565b90509392505050565b600060e082019050611b66600083018a61192d565b8181036020830152611b78818961149c565b90508181036040830152611b8c818861149c565b90508181036060830152611ba0818761149c565b90508181036080830152611bb4818661149c565b905081810360a0830152611bc8818561149c565b905081810360c0830152611bdc818461149c565b905098975050505050505050565b600061010082019050611c00600083018b61192d565b8181036020830152611c12818a61149c565b90508181036040830152611c26818961149c565b90508181036060830152611c3a818861149c565b90508181036080830152611c4e818761149c565b9050611c5d60a083018661192d565b611c6a60c083018561192d565b611c7760e083018461192d565b9998505050505050505050565b6000604051905081810181811067ffffffffffffffff82111715611ca757600080fd5b8060405250919050565b600067ffffffffffffffff821115611cc857600080fd5b601f19601f8301169050602081019050919050565b600081519050919050565b600082825260208201905092915050565b600081905092915050565b6000819050919050565b82818337600083830152505050565b60005b83811015611d3b578082015181840152602081019050611d20565b83811115611d4a576000848401525b50505050565b6000601f19601f8301169050919050565b611d6a81611d04565b8114611d7557600080fd5b5056fea265627a7a72305820c1389ecf69f43fd2c51de4cf1a1dee433cb0a2b03a4b0f03d7fb36111e1696986c6578706572696d656e74616cf50037",
  "source": "pragma solidity 0.5.8;\npragma experimental ABIEncoderV2;\n\ncontract Notary {\n\n    event createdEvent (\n        uint indexed _code\n    );\n\n    struct Person {\n        uint code;\n        string name;\n        string city;\n        string state;\n        string gender;\n        uint day;\n        uint month;\n        uint year;\n    }\n\n    struct Relatives {\n        uint code;\n        string father;\n        string mother;\n        string paternalGrandfather;\n        string paternalGrandmother;\n        string maternalGrandfather;\n        string maternalGrandmother;\n    }\n\n    struct Extra {\n        uint code;\n        string witness;\n    }\n    // Read/write people\n    mapping(uint => Person) public people;\n    mapping(uint => Relatives) public relativeList;\n    mapping(uint => Extra) public extras;\n    mapping(uint => uint) public codePosition;\n    uint public certificateCount;\n\n    constructor() public {}\n\n    function createPerson ( uint _code,\n                            string memory _name,\n                            string memory _city,\n                            string memory _state,\n                            string memory _gender,\n                            uint _day,\n                            uint _month,\n                            uint _year) public {\n        certificateCount ++;\n        Person memory person;\n        person.code = _code;\n        person.name = _name;\n        person.city = _city;\n        person.state = _state;\n        person.gender = _gender;\n        person.day = _day;\n        person.month = _month;\n        person.year = _year;\n        \n        validatePerson(person);\n\n        people[certificateCount] = person;\n        codePosition[_code] = certificateCount;\n\n        emit createdEvent(_code);\n    }\n\n    function createRelatives ( uint _code,\n                                string memory _father,\n                                string memory _mother,\n                                string memory _paternalGrandfather,\n                                string memory _paternalGrandmother,\n                                string memory _maternalGrandfather,\n                                string memory _maternalGrandmother) public {\n        Relatives memory relatives;\n        relatives.code = _code;\n        relatives.father = _father;\n        relatives.mother = _mother;\n        relatives.paternalGrandfather = _paternalGrandfather;\n        relatives.paternalGrandmother = _paternalGrandmother;\n        relatives.maternalGrandfather = _maternalGrandfather;\n        relatives.maternalGrandmother = _maternalGrandmother;\n\n        validateRelatives(relatives);\n\n        relativeList[certificateCount] = relatives;\n\n        emit createdEvent(_code);\n    }\n\n    function getPersonKey(uint _code) public view returns(uint) {\n        uint position = codePosition[_code];\n        return position;\n    }\n\n    function validatePerson(Person memory person) private {\n        require(people[person.code].code == 0, 'code must be unique');\n        require(bytes(person.name).length > 0, 'name must not be empty');\n        require(bytes(person.city).length > 0, 'city must not be empty');\n        require(person.day > 0 && person.day < 31, 'wrong day');\n        require(person.month > 0 && person.month < 13, 'wrong month');\n        require(person.year > 0, 'year must not be empty');\n        bytes memory gender = bytes(person.gender);\n        require(keccak256(gender) == keccak256('M') || keccak256(gender) == keccak256('F'), 'gender must not be M or F');\n    }\n\n    function validateRelatives(Relatives memory relative) private {\n        require(relativeList[relative.code].code == 0, 'code must be unique');\n        require(bytes(relative.father).length > 0, 'father must not be empty');\n        require(bytes(relative.mother).length > 0, 'mother must not be empty');\n        require(bytes(relative.paternalGrandfather).length > 0, 'paternalGrandfather must not be empty');\n        require(bytes(relative.paternalGrandmother).length > 0, 'paternalGrandmother must not be empty');\n        require(bytes(relative.maternalGrandfather).length > 0, 'maternalGrandfather must not be empty');\n        require(bytes(relative.maternalGrandmother).length > 0, 'maternalGrandmother must not be empty');\n        // require(bytes(person.witness).length > 0, 'witness must not be empty');\n    }\n}",
  "sourcePath": "/Users/douglasmandarino/Documents/PUC/Blockchain/BirthCertificate/contracts/Notary.sol",
  "compiler": {
    "name": "solc",
    "version": "0.5.8+commit.23d335f2.Emscripten.clang"
  },
  "schemaVersion": "3.0.16",
  "updatedAt": "2019-10-25T07:24:46.252Z",
  "devdoc": {
    "methods": {}
  },
  "userdoc": {
    "methods": {}
  }
}